{
  "_format": "hh-sol-artifact-1",
  "contractName": "Artists",
  "sourceName": "contracts/Artists.sol",
  "abi": [
    {
      "anonymous": false,
      "inputs": [
        {
          "indexed": false,
          "internalType": "string",
          "name": "name",
          "type": "string"
        },
        {
          "indexed": false,
          "internalType": "address",
          "name": "artistAddress",
          "type": "address"
        }
      ],
      "name": "Authorized",
      "type": "event"
    },
    {
      "anonymous": false,
      "inputs": [
        {
          "indexed": false,
          "internalType": "string",
          "name": "name",
          "type": "string"
        },
        {
          "indexed": false,
          "internalType": "string",
          "name": "musicStyle",
          "type": "string"
        },
        {
          "indexed": false,
          "internalType": "address",
          "name": "artistAddress",
          "type": "address"
        }
      ],
      "name": "NewArtist",
      "type": "event"
    },
    {
      "anonymous": false,
      "inputs": [
        {
          "indexed": true,
          "internalType": "address",
          "name": "previousOwner",
          "type": "address"
        },
        {
          "indexed": true,
          "internalType": "address",
          "name": "newOwner",
          "type": "address"
        }
      ],
      "name": "OwnershipTransferred",
      "type": "event"
    },
    {
      "anonymous": false,
      "inputs": [
        {
          "indexed": false,
          "internalType": "address",
          "name": "voter",
          "type": "address"
        },
        {
          "indexed": false,
          "internalType": "address",
          "name": "artist",
          "type": "address"
        },
        {
          "indexed": false,
          "internalType": "bool",
          "name": "vote",
          "type": "bool"
        }
      ],
      "name": "Voted",
      "type": "event"
    },
    {
      "inputs": [
        {
          "internalType": "string",
          "name": "_artistName",
          "type": "string"
        },
        {
          "internalType": "string",
          "name": "_musicStyle",
          "type": "string"
        }
      ],
      "name": "addMeAsArtist",
      "outputs": [],
      "stateMutability": "nonpayable",
      "type": "function"
    },
    {
      "inputs": [
        {
          "internalType": "address",
          "name": "_addressDAO",
          "type": "address"
        }
      ],
      "name": "addUserToDAO",
      "outputs": [],
      "stateMutability": "nonpayable",
      "type": "function"
    },
    {
      "inputs": [],
      "name": "authorizeMe",
      "outputs": [],
      "stateMutability": "nonpayable",
      "type": "function"
    },
    {
      "inputs": [
        {
          "internalType": "address",
          "name": "",
          "type": "address"
        }
      ],
      "name": "dao",
      "outputs": [
        {
          "internalType": "bool",
          "name": "",
          "type": "bool"
        }
      ],
      "stateMutability": "view",
      "type": "function"
    },
    {
      "inputs": [
        {
          "internalType": "address",
          "name": "_artistAddress",
          "type": "address"
        }
      ],
      "name": "getArtist",
      "outputs": [
        {
          "internalType": "bool",
          "name": "authorized",
          "type": "bool"
        }
      ],
      "stateMutability": "view",
      "type": "function"
    },
    {
      "inputs": [],
      "name": "owner",
      "outputs": [
        {
          "internalType": "address",
          "name": "",
          "type": "address"
        }
      ],
      "stateMutability": "view",
      "type": "function"
    },
    {
      "inputs": [],
      "name": "renounceOwnership",
      "outputs": [],
      "stateMutability": "nonpayable",
      "type": "function"
    },
    {
      "inputs": [
        {
          "internalType": "address",
          "name": "newOwner",
          "type": "address"
        }
      ],
      "name": "transferOwnership",
      "outputs": [],
      "stateMutability": "nonpayable",
      "type": "function"
    },
    {
      "inputs": [
        {
          "internalType": "bool",
          "name": "_yes",
          "type": "bool"
        },
        {
          "internalType": "address",
          "name": "_artistAddress",
          "type": "address"
        }
      ],
      "name": "vote",
      "outputs": [],
      "stateMutability": "nonpayable",
      "type": "function"
    }
  ],
  "bytecode": "0x608060405234801561001057600080fd5b5061002d61002261003260201b60201c565b61003a60201b60201c565b6100fe565b600033905090565b60008060009054906101000a900473ffffffffffffffffffffffffffffffffffffffff169050816000806101000a81548173ffffffffffffffffffffffffffffffffffffffff021916908373ffffffffffffffffffffffffffffffffffffffff1602179055508173ffffffffffffffffffffffffffffffffffffffff168173ffffffffffffffffffffffffffffffffffffffff167f8be0079c531659141344cd1fd0a4f28419497f9722a3daafe3b4186f6b6457e060405160405180910390a35050565b61189c8061010d6000396000f3fe608060405234801561001057600080fd5b50600436106100935760003560e01c80638da5cb5b116100665780638da5cb5b146100f8578063a31cad2814610116578063b72dbe5114610132578063b949c8041461014e578063f2fde38b1461017e57610093565b806322830af41461009857806332f65121146100c8578063633dfc70146100d2578063715018a6146100ee575b600080fd5b6100b260048036038101906100ad9190610e97565b61019a565b6040516100bf9190610edf565b60405180910390f35b6100d06101ba565b005b6100ec60048036038101906100e79190610f26565b6103f8565b005b6100f66106f1565b005b610100610779565b60405161010d9190610f75565b60405180910390f35b610130600480360381019061012b91906110d6565b6107a2565b005b61014c60048036038101906101479190610e97565b6109fc565b005b61016860048036038101906101639190610e97565b610b66565b6040516101759190610edf565b60405180910390f35b61019860048036038101906101939190610e97565b610bbf565b005b60026020528060005260406000206000915054906101000a900460ff1681565b60001515600160003373ffffffffffffffffffffffffffffffffffffffff1673ffffffffffffffffffffffffffffffffffffffff16815260200190815260200160002060020160009054906101000a900460ff16151514610250576040517f08c379a0000000000000000000000000000000000000000000000000000000008152600401610247906111ab565b60405180910390fd5b600a600160003373ffffffffffffffffffffffffffffffffffffffff1673ffffffffffffffffffffffffffffffffffffffff1681526020019081526020016000206005015461029f9190611204565b600160003373ffffffffffffffffffffffffffffffffffffffff1673ffffffffffffffffffffffffffffffffffffffff1681526020019081526020016000206004015411610322576040517f08c379a0000000000000000000000000000000000000000000000000000000008152600401610319906112cc565b60405180910390fd5b60018060003373ffffffffffffffffffffffffffffffffffffffff1673ffffffffffffffffffffffffffffffffffffffff16815260200190815260200160002060020160006101000a81548160ff0219169083151502179055507fb85b0fb532cb6d5851c6c791d05f2856a7bb4b7eec386960a4ce5269d0c5436a600160003373ffffffffffffffffffffffffffffffffffffffff1673ffffffffffffffffffffffffffffffffffffffff168152602001908152602001600020600001336040516103ee9291906113e1565b60405180910390a1565b60011515600260003373ffffffffffffffffffffffffffffffffffffffff1673ffffffffffffffffffffffffffffffffffffffff16815260200190815260200160002060009054906101000a900460ff1615151461048b576040517f08c379a00000000000000000000000000000000000000000000000000000000081526004016104829061145d565b60405180910390fd5b60001515600360003373ffffffffffffffffffffffffffffffffffffffff1673ffffffffffffffffffffffffffffffffffffffff16815260200190815260200160002060008373ffffffffffffffffffffffffffffffffffffffff1673ffffffffffffffffffffffffffffffffffffffff16815260200190815260200160002060009054906101000a900460ff1615151461055b576040517f08c379a0000000000000000000000000000000000000000000000000000000008152600401610552906114c9565b60405180910390fd5b81156105be57600160008273ffffffffffffffffffffffffffffffffffffffff1673ffffffffffffffffffffffffffffffffffffffff16815260200190815260200160002060040160008154809291906105b4906114e9565b919050555061061d565b8161061c57600160008273ffffffffffffffffffffffffffffffffffffffff1673ffffffffffffffffffffffffffffffffffffffff1681526020019081526020016000206005016000815480929190610616906114e9565b91905055505b5b6001600360003373ffffffffffffffffffffffffffffffffffffffff1673ffffffffffffffffffffffffffffffffffffffff16815260200190815260200160002060008373ffffffffffffffffffffffffffffffffffffffff1673ffffffffffffffffffffffffffffffffffffffff16815260200190815260200160002060006101000a81548160ff0219169083151502179055507ff01e0648b75d055c003bb115baaa99af91e34a86a5405eb8b96e451bcb1c79f03382846040516106e593929190611531565b60405180910390a15050565b6106f9610cb6565b73ffffffffffffffffffffffffffffffffffffffff16610717610779565b73ffffffffffffffffffffffffffffffffffffffff161461076d576040517f08c379a0000000000000000000000000000000000000000000000000000000008152600401610764906115b4565b60405180910390fd5b6107776000610cbe565b565b60008060009054906101000a900473ffffffffffffffffffffffffffffffffffffffff16905090565b600073ffffffffffffffffffffffffffffffffffffffff163373ffffffffffffffffffffffffffffffffffffffff1603610811576040517f08c379a000000000000000000000000000000000000000000000000000000000815260040161080890611620565b60405180910390fd5b60001515600160003373ffffffffffffffffffffffffffffffffffffffff1673ffffffffffffffffffffffffffffffffffffffff16815260200190815260200160002060020160019054906101000a900460ff161515146108a7576040517f08c379a000000000000000000000000000000000000000000000000000000000815260040161089e9061168c565b60405180910390fd5b6040518060e0016040528083815260200182815260200160001515815260200160011515815260200160008152602001600081526020016000815250600160003373ffffffffffffffffffffffffffffffffffffffff1673ffffffffffffffffffffffffffffffffffffffff168152602001908152602001600020600082015181600001908051906020019061093e929190610d82565b50602082015181600101908051906020019061095b929190610d82565b5060408201518160020160006101000a81548160ff02191690831515021790555060608201518160020160016101000a81548160ff0219169083151502179055506080820151816003015560a0820151816004015560c082015181600501559050507f0c0c7fa5d606da03e3649e92209ff5cb71ae33c558cfd24cc7bf74dcdff6ce6a8282336040516109f093929190611723565b60405180910390a15050565b610a04610cb6565b73ffffffffffffffffffffffffffffffffffffffff16610a22610779565b73ffffffffffffffffffffffffffffffffffffffff1614610a78576040517f08c379a0000000000000000000000000000000000000000000000000000000008152600401610a6f906115b4565b60405180910390fd5b60001515600260008373ffffffffffffffffffffffffffffffffffffffff1673ffffffffffffffffffffffffffffffffffffffff16815260200190815260200160002060009054906101000a900460ff16151514610b0b576040517f08c379a0000000000000000000000000000000000000000000000000000000008152600401610b02906117b4565b60405180910390fd5b6001600260008373ffffffffffffffffffffffffffffffffffffffff1673ffffffffffffffffffffffffffffffffffffffff16815260200190815260200160002060006101000a81548160ff02191690831515021790555050565b6000600160008373ffffffffffffffffffffffffffffffffffffffff1673ffffffffffffffffffffffffffffffffffffffff16815260200190815260200160002060020160009054906101000a900460ff169050919050565b610bc7610cb6565b73ffffffffffffffffffffffffffffffffffffffff16610be5610779565b73ffffffffffffffffffffffffffffffffffffffff1614610c3b576040517f08c379a0000000000000000000000000000000000000000000000000000000008152600401610c32906115b4565b60405180910390fd5b600073ffffffffffffffffffffffffffffffffffffffff168173ffffffffffffffffffffffffffffffffffffffff1603610caa576040517f08c379a0000000000000000000000000000000000000000000000000000000008152600401610ca190611846565b60405180910390fd5b610cb381610cbe565b50565b600033905090565b60008060009054906101000a900473ffffffffffffffffffffffffffffffffffffffff169050816000806101000a81548173ffffffffffffffffffffffffffffffffffffffff021916908373ffffffffffffffffffffffffffffffffffffffff1602179055508173ffffffffffffffffffffffffffffffffffffffff168173ffffffffffffffffffffffffffffffffffffffff167f8be0079c531659141344cd1fd0a4f28419497f9722a3daafe3b4186f6b6457e060405160405180910390a35050565b828054610d8e9061131b565b90600052602060002090601f016020900481019282610db05760008555610df7565b82601f10610dc957805160ff1916838001178555610df7565b82800160010185558215610df7579182015b82811115610df6578251825591602001919060010190610ddb565b5b509050610e049190610e08565b5090565b5b80821115610e21576000816000905550600101610e09565b5090565b6000604051905090565b600080fd5b600080fd5b600073ffffffffffffffffffffffffffffffffffffffff82169050919050565b6000610e6482610e39565b9050919050565b610e7481610e59565b8114610e7f57600080fd5b50565b600081359050610e9181610e6b565b92915050565b600060208284031215610ead57610eac610e2f565b5b6000610ebb84828501610e82565b91505092915050565b60008115159050919050565b610ed981610ec4565b82525050565b6000602082019050610ef46000830184610ed0565b92915050565b610f0381610ec4565b8114610f0e57600080fd5b50565b600081359050610f2081610efa565b92915050565b60008060408385031215610f3d57610f3c610e2f565b5b6000610f4b85828601610f11565b9250506020610f5c85828601610e82565b9150509250929050565b610f6f81610e59565b82525050565b6000602082019050610f8a6000830184610f66565b92915050565b600080fd5b600080fd5b6000601f19601f8301169050919050565b7f4e487b7100000000000000000000000000000000000000000000000000000000600052604160045260246000fd5b610fe382610f9a565b810181811067ffffffffffffffff8211171561100257611001610fab565b5b80604052505050565b6000611015610e25565b90506110218282610fda565b919050565b600067ffffffffffffffff82111561104157611040610fab565b5b61104a82610f9a565b9050602081019050919050565b82818337600083830152505050565b600061107961107484611026565b61100b565b90508281526020810184848401111561109557611094610f95565b5b6110a0848285611057565b509392505050565b600082601f8301126110bd576110bc610f90565b5b81356110cd848260208601611066565b91505092915050565b600080604083850312156110ed576110ec610e2f565b5b600083013567ffffffffffffffff81111561110b5761110a610e34565b5b611117858286016110a8565b925050602083013567ffffffffffffffff81111561113857611137610e34565b5b611144858286016110a8565b9150509250929050565b600082825260208201905092915050565b7f41727469737420616c726561647920617574686f72697a650000000000000000600082015250565b600061119560188361114e565b91506111a08261115f565b602082019050919050565b600060208201905081810360008301526111c481611188565b9050919050565b6000819050919050565b7f4e487b7100000000000000000000000000000000000000000000000000000000600052601160045260246000fd5b600061120f826111cb565b915061121a836111cb565b9250827fffffffffffffffffffffffffffffffffffffffffffffffffffffffffffffffff0382111561124f5761124e6111d5565b5b828201905092915050565b7f796f752068617665206e6f7420656e6f75676820766f746520746f206265206160008201527f7574686f72697a65000000000000000000000000000000000000000000000000602082015250565b60006112b660288361114e565b91506112c18261125a565b604082019050919050565b600060208201905081810360008301526112e5816112a9565b9050919050565b7f4e487b7100000000000000000000000000000000000000000000000000000000600052602260045260246000fd5b6000600282049050600182168061133357607f821691505b602082108103611346576113456112ec565b5b50919050565b60008190508160005260206000209050919050565b6000815461136e8161131b565b611378818661114e565b9450600182166000811461139357600181146113a5576113d8565b60ff19831686526020860193506113d8565b6113ae8561134c565b60005b838110156113d0578154818901526001820191506020810190506113b1565b808801955050505b50505092915050565b600060408201905081810360008301526113fb8185611361565b905061140a6020830184610f66565b9392505050565b7f596f7520617265206e6f7420612044414f207573657200000000000000000000600082015250565b600061144760168361114e565b915061145282611411565b602082019050919050565b600060208201905081810360008301526114768161143a565b9050919050565b7f796f75206861766520616c726561647920766f74656400000000000000000000600082015250565b60006114b360168361114e565b91506114be8261147d565b602082019050919050565b600060208201905081810360008301526114e2816114a6565b9050919050565b60006114f4826111cb565b91507fffffffffffffffffffffffffffffffffffffffffffffffffffffffffffffffff8203611526576115256111d5565b5b600182019050919050565b60006060820190506115466000830186610f66565b6115536020830185610f66565b6115606040830184610ed0565b949350505050565b7f4f776e61626c653a2063616c6c6572206973206e6f7420746865206f776e6572600082015250565b600061159e60208361114e565b91506115a982611568565b602082019050919050565b600060208201905081810360008301526115cd81611591565b9050919050565b7f796f7520617265206e6f626f6479000000000000000000000000000000000000600082015250565b600061160a600e8361114e565b9150611615826115d4565b602082019050919050565b60006020820190508181036000830152611639816115fd565b9050919050565b7f796f752061726520616c72656164792072656769737465726564000000000000600082015250565b6000611676601a8361114e565b915061168182611640565b602082019050919050565b600060208201905081810360008301526116a581611669565b9050919050565b600081519050919050565b60005b838110156116d55780820151818401526020810190506116ba565b838111156116e4576000848401525b50505050565b60006116f5826116ac565b6116ff818561114e565b935061170f8185602086016116b7565b61171881610f9a565b840191505092915050565b6000606082019050818103600083015261173d81866116ea565b9050818103602083015261175181856116ea565b90506117606040830184610f66565b949350505050565b7f7573657220616c726561647920696e2044414f00000000000000000000000000600082015250565b600061179e60138361114e565b91506117a982611768565b602082019050919050565b600060208201905081810360008301526117cd81611791565b9050919050565b7f4f776e61626c653a206e6577206f776e657220697320746865207a65726f206160008201527f6464726573730000000000000000000000000000000000000000000000000000602082015250565b600061183060268361114e565b915061183b826117d4565b604082019050919050565b6000602082019050818103600083015261185f81611823565b905091905056fea26469706673582212200063f0f770224ddb5b010ae6c5d5e8b26b8c7f2a58a77ed4ff89113247e41fd564736f6c634300080d0033",
  "linkReferences": {},
  "deployedLinkReferences": {}
}