{
  "_format": "hh-sol-artifact-1",
  "contractName": "Factory",
  "sourceName": "contracts/Factory.sol",
  "abi": [
    {
      "inputs": [
        {
          "internalType": "uint256",
          "name": "_feePercent",
          "type": "uint256"
        },
        {
          "internalType": "address",
          "name": "_artistsContract",
          "type": "address"
        }
      ],
      "stateMutability": "nonpayable",
      "type": "constructor"
    },
    {
      "anonymous": false,
      "inputs": [
        {
          "indexed": false,
          "internalType": "uint256",
          "name": "pochetteId",
          "type": "uint256"
        },
        {
          "indexed": false,
          "internalType": "uint256",
          "name": "pixelId",
          "type": "uint256"
        },
        {
          "indexed": false,
          "internalType": "uint256",
          "name": "price",
          "type": "uint256"
        },
        {
          "indexed": true,
          "internalType": "address",
          "name": "seller",
          "type": "address"
        },
        {
          "indexed": true,
          "internalType": "address",
          "name": "buyer",
          "type": "address"
        }
      ],
      "name": "Bought",
      "type": "event"
    },
    {
      "anonymous": false,
      "inputs": [
        {
          "indexed": false,
          "internalType": "uint256",
          "name": "pochetteId",
          "type": "uint256"
        },
        {
          "indexed": false,
          "internalType": "uint256",
          "name": "pixelId",
          "type": "uint256"
        },
        {
          "indexed": false,
          "internalType": "uint256",
          "name": "price",
          "type": "uint256"
        },
        {
          "indexed": true,
          "internalType": "address",
          "name": "pochetteAddress",
          "type": "address"
        },
        {
          "indexed": true,
          "internalType": "address",
          "name": "owner",
          "type": "address"
        },
        {
          "indexed": false,
          "internalType": "string",
          "name": "uri",
          "type": "string"
        }
      ],
      "name": "Mint",
      "type": "event"
    },
    {
      "anonymous": false,
      "inputs": [
        {
          "indexed": false,
          "internalType": "uint256",
          "name": "pochetteId",
          "type": "uint256"
        },
        {
          "indexed": true,
          "internalType": "address",
          "name": "pochetteAddress",
          "type": "address"
        },
        {
          "indexed": true,
          "internalType": "address",
          "name": "owner",
          "type": "address"
        }
      ],
      "name": "NewPochette",
      "type": "event"
    },
    {
      "anonymous": false,
      "inputs": [
        {
          "indexed": true,
          "internalType": "address",
          "name": "previousOwner",
          "type": "address"
        },
        {
          "indexed": true,
          "internalType": "address",
          "name": "newOwner",
          "type": "address"
        }
      ],
      "name": "OwnershipTransferred",
      "type": "event"
    },
    {
      "inputs": [],
      "name": "artistsContract",
      "outputs": [
        {
          "internalType": "address",
          "name": "",
          "type": "address"
        }
      ],
      "stateMutability": "view",
      "type": "function"
    },
    {
      "inputs": [
        {
          "internalType": "string",
          "name": "_artistName",
          "type": "string"
        },
        {
          "internalType": "string",
          "name": "_pochetteName",
          "type": "string"
        }
      ],
      "name": "createPochette",
      "outputs": [],
      "stateMutability": "nonpayable",
      "type": "function"
    },
    {
      "inputs": [],
      "name": "feeAccount",
      "outputs": [
        {
          "internalType": "address payable",
          "name": "",
          "type": "address"
        }
      ],
      "stateMutability": "view",
      "type": "function"
    },
    {
      "inputs": [],
      "name": "feePercent",
      "outputs": [
        {
          "internalType": "uint256",
          "name": "",
          "type": "uint256"
        }
      ],
      "stateMutability": "view",
      "type": "function"
    },
    {
      "inputs": [
        {
          "internalType": "uint256",
          "name": "_pochetteId",
          "type": "uint256"
        },
        {
          "internalType": "string",
          "name": "_uri",
          "type": "string"
        }
      ],
      "name": "makeItem",
      "outputs": [],
      "stateMutability": "nonpayable",
      "type": "function"
    },
    {
      "inputs": [
        {
          "internalType": "uint256",
          "name": "_pochetteId",
          "type": "uint256"
        },
        {
          "internalType": "uint256",
          "name": "_pixelId",
          "type": "uint256"
        },
        {
          "internalType": "uint256",
          "name": "_price",
          "type": "uint256"
        }
      ],
      "name": "manageItem",
      "outputs": [],
      "stateMutability": "nonpayable",
      "type": "function"
    },
    {
      "inputs": [
        {
          "internalType": "address",
          "name": "",
          "type": "address"
        },
        {
          "internalType": "address",
          "name": "",
          "type": "address"
        },
        {
          "internalType": "uint256",
          "name": "",
          "type": "uint256"
        },
        {
          "internalType": "bytes",
          "name": "",
          "type": "bytes"
        }
      ],
      "name": "onERC721Received",
      "outputs": [
        {
          "internalType": "bytes4",
          "name": "",
          "type": "bytes4"
        }
      ],
      "stateMutability": "nonpayable",
      "type": "function"
    },
    {
      "inputs": [],
      "name": "owner",
      "outputs": [
        {
          "internalType": "address",
          "name": "",
          "type": "address"
        }
      ],
      "stateMutability": "view",
      "type": "function"
    },
    {
      "inputs": [
        {
          "internalType": "uint256",
          "name": "",
          "type": "uint256"
        },
        {
          "internalType": "uint256",
          "name": "",
          "type": "uint256"
        }
      ],
      "name": "pixelByPochette",
      "outputs": [
        {
          "internalType": "uint256",
          "name": "pochetteId",
          "type": "uint256"
        },
        {
          "internalType": "uint256",
          "name": "pixelId",
          "type": "uint256"
        },
        {
          "internalType": "uint256",
          "name": "price",
          "type": "uint256"
        },
        {
          "internalType": "contract Peaciz",
          "name": "peaciz",
          "type": "address"
        },
        {
          "internalType": "address payable",
          "name": "owner",
          "type": "address"
        },
        {
          "internalType": "bool",
          "name": "onSale",
          "type": "bool"
        },
        {
          "internalType": "string",
          "name": "uri",
          "type": "string"
        }
      ],
      "stateMutability": "view",
      "type": "function"
    },
    {
      "inputs": [
        {
          "internalType": "uint256",
          "name": "_pochetteId",
          "type": "uint256"
        },
        {
          "internalType": "uint256",
          "name": "_pixelId",
          "type": "uint256"
        }
      ],
      "name": "purchaseItem",
      "outputs": [],
      "stateMutability": "payable",
      "type": "function"
    },
    {
      "inputs": [],
      "name": "rate",
      "outputs": [
        {
          "internalType": "uint256",
          "name": "",
          "type": "uint256"
        }
      ],
      "stateMutability": "view",
      "type": "function"
    },
    {
      "inputs": [],
      "name": "renounceOwnership",
      "outputs": [],
      "stateMutability": "nonpayable",
      "type": "function"
    },
    {
      "inputs": [
        {
          "internalType": "address",
          "name": "newOwner",
          "type": "address"
        }
      ],
      "name": "transferOwnership",
      "outputs": [],
      "stateMutability": "nonpayable",
      "type": "function"
    }
  ],
  "bytecode": "0x60e0604052670de0b6b3a76400006001553480156200001d57600080fd5b50604051620062913803806200629183398181016040528101906200004391906200024c565b6200006362000057620000db60201b60201c565b620000e360201b60201c565b3373ffffffffffffffffffffffffffffffffffffffff1660808173ffffffffffffffffffffffffffffffffffffffff16815250508160c081815250508073ffffffffffffffffffffffffffffffffffffffff1660a08173ffffffffffffffffffffffffffffffffffffffff1681525050505062000293565b600033905090565b60008060009054906101000a900473ffffffffffffffffffffffffffffffffffffffff169050816000806101000a81548173ffffffffffffffffffffffffffffffffffffffff021916908373ffffffffffffffffffffffffffffffffffffffff1602179055508173ffffffffffffffffffffffffffffffffffffffff168173ffffffffffffffffffffffffffffffffffffffff167f8be0079c531659141344cd1fd0a4f28419497f9722a3daafe3b4186f6b6457e060405160405180910390a35050565b600080fd5b6000819050919050565b620001c181620001ac565b8114620001cd57600080fd5b50565b600081519050620001e181620001b6565b92915050565b600073ffffffffffffffffffffffffffffffffffffffff82169050919050565b60006200021482620001e7565b9050919050565b620002268162000207565b81146200023257600080fd5b50565b60008151905062000246816200021b565b92915050565b60008060408385031215620002665762000265620001a7565b5b60006200027685828601620001d0565b9250506020620002898582860162000235565b9150509250929050565b60805160a05160c051615fc0620002d160003960008181610d8501526111a401526000610fa5015260008181610cd001526112cb0152615fc06000f3fe608060405260043610620000d45760003560e01c8063715018a6116200008b578063a942dedd1162000061578063a942dedd146200029d578063af45484514620002cb578063e067569814620002fb578063f2fde38b146200031b57620000d4565b8063715018a614620002235780637fd6f15c146200023d5780638da5cb5b146200026d57620000d4565b8063134358bd14620000d9578063150b7a0214620001235780632c4e722e146200016757806330fc45de146200019757806346d66d7114620001c557806365e17c9d14620001f3575b600080fd5b348015620000e657600080fd5b50620001056004803603810190620000ff9190620017ac565b62000349565b6040516200011a979695949392919062001975565b60405180910390f35b3480156200013057600080fd5b506200014f600480360381019062000149919062001b8f565b62000475565b6040516200015e919062001c5d565b60405180910390f35b3480156200017457600080fd5b506200017f62000489565b6040516200018e919062001c7a565b60405180910390f35b348015620001a457600080fd5b50620001c36004803603810190620001bd919062001d4b565b6200048f565b005b348015620001d257600080fd5b50620001f16004803603810190620001eb919062001db1565b620009b2565b005b3480156200020057600080fd5b506200020b62000cce565b6040516200021a919062001e0d565b60405180910390f35b3480156200023057600080fd5b506200023b62000cf2565b005b3480156200024a57600080fd5b506200025562000d83565b60405162000264919062001c7a565b60405180910390f35b3480156200027a57600080fd5b506200028562000da7565b60405162000294919062001e3b565b60405180910390f35b348015620002aa57600080fd5b50620002c96004803603810190620002c3919062001e58565b62000dd0565b005b348015620002d857600080fd5b50620002e362000fa3565b604051620002f2919062001e3b565b60405180910390f35b620003196004803603810190620003139190620017ac565b62000fc7565b005b3480156200032857600080fd5b5062000347600480360381019062000341919062001edd565b620014d0565b005b6004602052816000526040600020602052806000526040600020600091509150508060000154908060010154908060020154908060030160009054906101000a900473ffffffffffffffffffffffffffffffffffffffff16908060040160009054906101000a900473ffffffffffffffffffffffffffffffffffffffff16908060040160149054906101000a900460ff1690806005018054620003ec9062001f3e565b80601f01602080910402602001604051908101604052809291908181526020018280546200041a9062001f3e565b80156200046b5780601f106200043f576101008083540402835291602001916200046b565b820191906000526020600020905b8154815290600101906020018083116200044d57829003601f168201915b5050505050905087565b600063150b7a0260e01b9050949350505050565b60015481565b3373ffffffffffffffffffffffffffffffffffffffff166003600084815260200190815260200160002060030160009054906101000a900473ffffffffffffffffffffffffffffffffffffffff1673ffffffffffffffffffffffffffffffffffffffff161462000536576040517f08c379a00000000000000000000000000000000000000000000000000000000081526004016200052d9062001fc3565b60405180910390fd5b6003600083815260200190815260200160002060020160009054906101000a900473ffffffffffffffffffffffffffffffffffffffff1673ffffffffffffffffffffffffffffffffffffffff1663d85d3d27826040518263ffffffff1660e01b8152600401620005a7919062001fe5565b600060405180830381600087803b158015620005c257600080fd5b505af1158015620005d7573d6000803e3d6000fd5b5050505060006003600084815260200190815260200160002060020160009054906101000a900473ffffffffffffffffffffffffffffffffffffffff1673ffffffffffffffffffffffffffffffffffffffff1663a87d942c6040518163ffffffff1660e01b8152600401602060405180830381865afa1580156200065f573d6000803e3d6000fd5b505050506040513d601f19601f8201168201806040525081019062000685919062002020565b90506040518060e00160405280828152602001848152602001600081526020016003600086815260200190815260200160002060020160009054906101000a900473ffffffffffffffffffffffffffffffffffffffff1673ffffffffffffffffffffffffffffffffffffffff1681526020013373ffffffffffffffffffffffffffffffffffffffff1681526020016000151581526020018381525060046000858152602001908152602001600020600083815260200190815260200160002060008201518160000155602082015181600101556040820151816002015560608201518160030160006101000a81548173ffffffffffffffffffffffffffffffffffffffff021916908373ffffffffffffffffffffffffffffffffffffffff16021790555060808201518160040160006101000a81548173ffffffffffffffffffffffffffffffffffffffff021916908373ffffffffffffffffffffffffffffffffffffffff16021790555060a08201518160040160146101000a81548160ff02191690831515021790555060c08201518160050190805190602001906200082e9291906200169f565b509050506003600084815260200190815260200160002060010160008154809291906200085b9062002081565b91905055506003600084815260200190815260200160002060020160009054906101000a900473ffffffffffffffffffffffffffffffffffffffff1673ffffffffffffffffffffffffffffffffffffffff166342842e0e3033846040518463ffffffff1660e01b8152600401620008d593929190620020ce565b600060405180830381600087803b158015620008f057600080fd5b505af115801562000905573d6000803e3d6000fd5b505050503373ffffffffffffffffffffffffffffffffffffffff166003600085815260200190815260200160002060020160009054906101000a900473ffffffffffffffffffffffffffffffffffffffff1673ffffffffffffffffffffffffffffffffffffffff167f507ad6efe8967be48c2fea6523116de18de0568e4ac1316262454e4e6fbdfc1d8584600087604051620009a594939291906200214e565b60405180910390a3505050565b8282600082118015620009c55750600081115b62000a07576040517f08c379a0000000000000000000000000000000000000000000000000000000008152600401620009fe90620021f2565b60405180910390fd5b600060046000878152602001908152602001600020600086815260200190815260200160002090506000816001015411801562000a5e57506003600087815260200190815260200160002060010154816001015411155b62000aa0576040517f08c379a000000000000000000000000000000000000000000000000000000000815260040162000a979062002264565b60405180910390fd5b3373ffffffffffffffffffffffffffffffffffffffff168160040160009054906101000a900473ffffffffffffffffffffffffffffffffffffffff1673ffffffffffffffffffffffffffffffffffffffff161462000b35576040517f08c379a000000000000000000000000000000000000000000000000000000000815260040162000b2c90620022d6565b60405180910390fd5b8060040160149054906101000a900460ff161562000b8a576040517f08c379a000000000000000000000000000000000000000000000000000000000815260040162000b81906200236e565b60405180910390fd5b6003600087815260200190815260200160002060020160009054906101000a900473ffffffffffffffffffffffffffffffffffffffff1673ffffffffffffffffffffffffffffffffffffffff166342842e0e3330886040518463ffffffff1660e01b815260040162000bff93929190620020ce565b600060405180830381600087803b15801562000c1a57600080fd5b505af115801562000c2f573d6000803e3d6000fd5b505050508060040160149054906101000a900460ff1662000c855760018160040160146101000a81548160ff0219169083151502179055506001548462000c77919062002390565b816002018190555062000cc6565b8060040160149054906101000a900460ff161562000cc55760008160040160146101000a81548160ff021916908315150217905550600081600201819055505b5b505050505050565b7f000000000000000000000000000000000000000000000000000000000000000081565b62000cfc620015d3565b73ffffffffffffffffffffffffffffffffffffffff1662000d1c62000da7565b73ffffffffffffffffffffffffffffffffffffffff161462000d75576040517f08c379a000000000000000000000000000000000000000000000000000000000815260040162000d6c9062002441565b60405180910390fd5b62000d816000620015db565b565b7f000000000000000000000000000000000000000000000000000000000000000081565b60008060009054906101000a900473ffffffffffffffffffffffffffffffffffffffff16905090565b600082823060405162000de39062001730565b62000df19392919062002463565b604051809103906000f08015801562000e0e573d6000803e3d6000fd5b5090506002600081548092919062000e269062002081565b919050555060405180608001604052806002548152602001600081526020018273ffffffffffffffffffffffffffffffffffffffff1681526020013373ffffffffffffffffffffffffffffffffffffffff16815250600360006002548152602001908152602001600020600082015181600001556020820151816001015560408201518160020160006101000a81548173ffffffffffffffffffffffffffffffffffffffff021916908373ffffffffffffffffffffffffffffffffffffffff16021790555060608201518160030160006101000a81548173ffffffffffffffffffffffffffffffffffffffff021916908373ffffffffffffffffffffffffffffffffffffffff1602179055509050503373ffffffffffffffffffffffffffffffffffffffff168173ffffffffffffffffffffffffffffffffffffffff167fccbba0a94f696bbad38513ec7fba6f1e101f48d2ab43eaf0d2da72db247a4eec60025460405162000f96919062001c7a565b60405180910390a3505050565b7f000000000000000000000000000000000000000000000000000000000000000081565b818160008211801562000fda5750600081115b6200101c576040517f08c379a00000000000000000000000000000000000000000000000000000000081526004016200101390620021f2565b60405180910390fd5b60006004600086815260200190815260200160002060008581526020019081526020016000209050600081600101541180156200107357506003600086815260200190815260200160002060010154816001015411155b620010b5576040517f08c379a0000000000000000000000000000000000000000000000000000000008152600401620010ac9062002264565b60405180910390fd5b8060040160149054906101000a900460ff1662001109576040517f08c379a00000000000000000000000000000000000000000000000000000000081526004016200110090620024fe565b60405180910390fd5b3373ffffffffffffffffffffffffffffffffffffffff168160040160009054906101000a900473ffffffffffffffffffffffffffffffffffffffff1673ffffffffffffffffffffffffffffffffffffffff16036200119e576040517f08c379a0000000000000000000000000000000000000000000000000000000008152600401620011959062002570565b60405180910390fd5b600060647f00000000000000000000000000000000000000000000000000000000000000006064620011d1919062002592565b6004600089815260200190815260200160002060008881526020019081526020016000206002015462001205919062002390565b6200121191906200261e565b90508034101562001259576040517f08c379a00000000000000000000000000000000000000000000000000000000081526004016200125090620026cc565b60405180910390fd5b8160040160009054906101000a900473ffffffffffffffffffffffffffffffffffffffff1673ffffffffffffffffffffffffffffffffffffffff166108fc83600201549081150290604051600060405180830381858888f19350505050158015620012c8573d6000803e3d6000fd5b507f000000000000000000000000000000000000000000000000000000000000000073ffffffffffffffffffffffffffffffffffffffff166108fc836002015483620013159190620026ee565b9081150290604051600060405180830381858888f1935050505015801562001341573d6000803e3d6000fd5b5060008260040160146101000a81548160ff0219169083151502179055508160030160009054906101000a900473ffffffffffffffffffffffffffffffffffffffff1673ffffffffffffffffffffffffffffffffffffffff166323b872dd3033886040518463ffffffff1660e01b8152600401620013c2939291906200274e565b600060405180830381600087803b158015620013dd57600080fd5b505af1158015620013f2573d6000803e3d6000fd5b505050503373ffffffffffffffffffffffffffffffffffffffff168260040160009054906101000a900473ffffffffffffffffffffffffffffffffffffffff1673ffffffffffffffffffffffffffffffffffffffff167fb085dc883b64c92d87743e5a1968be3b32761fc31aedacb744268b19a1da21db8888856040516200147d939291906200278b565b60405180910390a3338260040160006101000a81548173ffffffffffffffffffffffffffffffffffffffff021916908373ffffffffffffffffffffffffffffffffffffffff160217905550505050505050565b620014da620015d3565b73ffffffffffffffffffffffffffffffffffffffff16620014fa62000da7565b73ffffffffffffffffffffffffffffffffffffffff161462001553576040517f08c379a00000000000000000000000000000000000000000000000000000000081526004016200154a9062002441565b60405180910390fd5b600073ffffffffffffffffffffffffffffffffffffffff168173ffffffffffffffffffffffffffffffffffffffff1603620015c5576040517f08c379a0000000000000000000000000000000000000000000000000000000008152600401620015bc906200283e565b60405180910390fd5b620015d081620015db565b50565b600033905090565b60008060009054906101000a900473ffffffffffffffffffffffffffffffffffffffff169050816000806101000a81548173ffffffffffffffffffffffffffffffffffffffff021916908373ffffffffffffffffffffffffffffffffffffffff1602179055508173ffffffffffffffffffffffffffffffffffffffff168173ffffffffffffffffffffffffffffffffffffffff167f8be0079c531659141344cd1fd0a4f28419497f9722a3daafe3b4186f6b6457e060405160405180910390a35050565b828054620016ad9062001f3e565b90600052602060002090601f016020900481019282620016d157600085556200171d565b82601f10620016ec57805160ff19168380011785556200171d565b828001600101855582156200171d579182015b828111156200171c578251825591602001919060010190620016ff565b5b5090506200172c91906200173e565b5090565b61372a806200286183390190565b5b80821115620017595760008160009055506001016200173f565b5090565b6000604051905090565b600080fd5b600080fd5b6000819050919050565b620017868162001771565b81146200179257600080fd5b50565b600081359050620017a6816200177b565b92915050565b60008060408385031215620017c657620017c562001767565b5b6000620017d68582860162001795565b9250506020620017e98582860162001795565b9150509250929050565b620017fe8162001771565b82525050565b600073ffffffffffffffffffffffffffffffffffffffff82169050919050565b6000819050919050565b60006200184f62001849620018438462001804565b62001824565b62001804565b9050919050565b600062001863826200182e565b9050919050565b6000620018778262001856565b9050919050565b62001889816200186a565b82525050565b60006200189c8262001804565b9050919050565b620018ae816200188f565b82525050565b60008115159050919050565b620018cb81620018b4565b82525050565b600081519050919050565b600082825260208201905092915050565b60005b838110156200190d578082015181840152602081019050620018f0565b838111156200191d576000848401525b50505050565b6000601f19601f8301169050919050565b60006200194182620018d1565b6200194d8185620018dc565b93506200195f818560208601620018ed565b6200196a8162001923565b840191505092915050565b600060e0820190506200198c600083018a620017f3565b6200199b6020830189620017f3565b620019aa6040830188620017f3565b620019b960608301876200187e565b620019c86080830186620018a3565b620019d760a0830185620018c0565b81810360c0830152620019eb818462001934565b905098975050505050505050565b600062001a068262001804565b9050919050565b62001a1881620019f9565b811462001a2457600080fd5b50565b60008135905062001a388162001a0d565b92915050565b600080fd5b600080fd5b7f4e487b7100000000000000000000000000000000000000000000000000000000600052604160045260246000fd5b62001a828262001923565b810181811067ffffffffffffffff8211171562001aa45762001aa362001a48565b5b80604052505050565b600062001ab96200175d565b905062001ac7828262001a77565b919050565b600067ffffffffffffffff82111562001aea5762001ae962001a48565b5b62001af58262001923565b9050602081019050919050565b82818337600083830152505050565b600062001b2862001b228462001acc565b62001aad565b90508281526020810184848401111562001b475762001b4662001a43565b5b62001b5484828562001b02565b509392505050565b600082601f83011262001b745762001b7362001a3e565b5b813562001b8684826020860162001b11565b91505092915050565b6000806000806080858703121562001bac5762001bab62001767565b5b600062001bbc8782880162001a27565b945050602062001bcf8782880162001a27565b935050604062001be28782880162001795565b925050606085013567ffffffffffffffff81111562001c065762001c056200176c565b5b62001c148782880162001b5c565b91505092959194509250565b60007fffffffff0000000000000000000000000000000000000000000000000000000082169050919050565b62001c578162001c20565b82525050565b600060208201905062001c74600083018462001c4c565b92915050565b600060208201905062001c916000830184620017f3565b92915050565b600067ffffffffffffffff82111562001cb55762001cb462001a48565b5b62001cc08262001923565b9050602081019050919050565b600062001ce462001cde8462001c97565b62001aad565b90508281526020810184848401111562001d035762001d0262001a43565b5b62001d1084828562001b02565b509392505050565b600082601f83011262001d305762001d2f62001a3e565b5b813562001d4284826020860162001ccd565b91505092915050565b6000806040838503121562001d655762001d6462001767565b5b600062001d758582860162001795565b925050602083013567ffffffffffffffff81111562001d995762001d986200176c565b5b62001da78582860162001d18565b9150509250929050565b60008060006060848603121562001dcd5762001dcc62001767565b5b600062001ddd8682870162001795565b935050602062001df08682870162001795565b925050604062001e038682870162001795565b9150509250925092565b600060208201905062001e246000830184620018a3565b92915050565b62001e3581620019f9565b82525050565b600060208201905062001e52600083018462001e2a565b92915050565b6000806040838503121562001e725762001e7162001767565b5b600083013567ffffffffffffffff81111562001e935762001e926200176c565b5b62001ea18582860162001d18565b925050602083013567ffffffffffffffff81111562001ec55762001ec46200176c565b5b62001ed38582860162001d18565b9150509250929050565b60006020828403121562001ef65762001ef562001767565b5b600062001f068482850162001a27565b91505092915050565b7f4e487b7100000000000000000000000000000000000000000000000000000000600052602260045260246000fd5b6000600282049050600182168062001f5757607f821691505b60208210810362001f6d5762001f6c62001f0f565b5b50919050565b7f796f7520617265206e6f742074686520706f636865747465206f776e65720000600082015250565b600062001fab601e83620018dc565b915062001fb88262001f73565b602082019050919050565b6000602082019050818103600083015262001fde8162001f9c565b9050919050565b6000602082019050818103600083015262002001818462001934565b905092915050565b6000815190506200201a816200177b565b92915050565b60006020828403121562002039576200203862001767565b5b6000620020498482850162002009565b91505092915050565b7f4e487b7100000000000000000000000000000000000000000000000000000000600052601160045260246000fd5b60006200208e8262001771565b91507fffffffffffffffffffffffffffffffffffffffffffffffffffffffffffffffff8203620020c357620020c262002052565b5b600182019050919050565b6000606082019050620020e5600083018662001e2a565b620020f4602083018562001e2a565b620021036040830184620017f3565b949350505050565b6000819050919050565b600062002136620021306200212a846200210b565b62001824565b62001771565b9050919050565b620021488162002115565b82525050565b6000608082019050620021656000830187620017f3565b620021746020830186620017f3565b6200218360408301856200213d565b818103606083015262002197818462001934565b905095945050505050565b7f706c6561736520656e74657220612076616c6964206e756d6265720000000000600082015250565b6000620021da601b83620018dc565b9150620021e782620021a2565b602082019050919050565b600060208201905081810360008301526200220d81620021cb565b9050919050565b7f6974656d20646f65736e74206578697374730000000000000000000000000000600082015250565b60006200224c601283620018dc565b9150620022598262002214565b602082019050919050565b600060208201905081810360008301526200227f816200223d565b9050919050565b7f596f7520617265206e6f7420746865206f776e6572206f6620746865204e4654600082015250565b6000620022be602083620018dc565b9150620022cb8262002286565b602082019050919050565b60006020820190508181036000830152620022f181620022af565b9050919050565b7f6974656d20616c7265616479206f6e207468652021213a6d61726b6574706c6160008201527f6365000000000000000000000000000000000000000000000000000000000000602082015250565b600062002356602283620018dc565b91506200236382620022f8565b604082019050919050565b60006020820190508181036000830152620023898162002347565b9050919050565b60006200239d8262001771565b9150620023aa8362001771565b9250817fffffffffffffffffffffffffffffffffffffffffffffffffffffffffffffffff0483118215151615620023e657620023e562002052565b5b828202905092915050565b7f4f776e61626c653a2063616c6c6572206973206e6f7420746865206f776e6572600082015250565b600062002429602083620018dc565b91506200243682620023f1565b602082019050919050565b600060208201905081810360008301526200245c816200241a565b9050919050565b600060608201905081810360008301526200247f818662001934565b9050818103602083015262002495818562001934565b9050620024a6604083018462001e2a565b949350505050565b7f6974656d206e6f74206f6e20746865206d61726b6574706c6163650000000000600082015250565b6000620024e6601b83620018dc565b9150620024f382620024ae565b602082019050919050565b600060208201905081810360008301526200251981620024d7565b9050919050565b7f596f752061726520746865206f776e6572206f6620746865204e465400000000600082015250565b600062002558601c83620018dc565b9150620025658262002520565b602082019050919050565b600060208201905081810360008301526200258b8162002549565b9050919050565b60006200259f8262001771565b9150620025ac8362001771565b9250827fffffffffffffffffffffffffffffffffffffffffffffffffffffffffffffffff03821115620025e457620025e362002052565b5b828201905092915050565b7f4e487b7100000000000000000000000000000000000000000000000000000000600052601260045260246000fd5b60006200262b8262001771565b9150620026388362001771565b9250826200264b576200264a620025ef565b5b828204905092915050565b7f6e6f7420656e6f75676820657468657220746f20636f766572206974656d207060008201527f7269636520616e64206d61726b65742066656500000000000000000000000000602082015250565b6000620026b4603383620018dc565b9150620026c18262002656565b604082019050919050565b60006020820190508181036000830152620026e781620026a5565b9050919050565b6000620026fb8262001771565b9150620027088362001771565b9250828210156200271e576200271d62002052565b5b828203905092915050565b6000620027368262001856565b9050919050565b620027488162002729565b82525050565b600060608201905062002765600083018662001e2a565b6200277460208301856200273d565b620027836040830184620017f3565b949350505050565b6000606082019050620027a26000830186620017f3565b620027b16020830185620017f3565b620027c06040830184620017f3565b949350505050565b7f4f776e61626c653a206e6577206f776e657220697320746865207a65726f206160008201527f6464726573730000000000000000000000000000000000000000000000000000602082015250565b600062002826602683620018dc565b91506200283382620027c8565b604082019050919050565b60006020820190508181036000830152620028598162002817565b905091905056fe60a06040523480156200001157600080fd5b506040516200372a3803806200372a833981810160405281019062000037919062000452565b8282816000908051906020019062000051929190620001a0565b5080600190805190602001906200006a929190620001a0565b5050506200008d62000081620000d260201b60201c565b620000da60201b60201c565b60016008819055508073ffffffffffffffffffffffffffffffffffffffff1660808173ffffffffffffffffffffffffffffffffffffffff168152505050505062000550565b600033905090565b6000600760009054906101000a900473ffffffffffffffffffffffffffffffffffffffff16905081600760006101000a81548173ffffffffffffffffffffffffffffffffffffffff021916908373ffffffffffffffffffffffffffffffffffffffff1602179055508173ffffffffffffffffffffffffffffffffffffffff168173ffffffffffffffffffffffffffffffffffffffff167f8be0079c531659141344cd1fd0a4f28419497f9722a3daafe3b4186f6b6457e060405160405180910390a35050565b828054620001ae906200051b565b90600052602060002090601f016020900481019282620001d257600085556200021e565b82601f10620001ed57805160ff19168380011785556200021e565b828001600101855582156200021e579182015b828111156200021d57825182559160200191906001019062000200565b5b5090506200022d919062000231565b5090565b5b808211156200024c57600081600090555060010162000232565b5090565b6000604051905090565b600080fd5b600080fd5b600080fd5b600080fd5b6000601f19601f8301169050919050565b7f4e487b7100000000000000000000000000000000000000000000000000000000600052604160045260246000fd5b620002b9826200026e565b810181811067ffffffffffffffff82111715620002db57620002da6200027f565b5b80604052505050565b6000620002f062000250565b9050620002fe8282620002ae565b919050565b600067ffffffffffffffff8211156200032157620003206200027f565b5b6200032c826200026e565b9050602081019050919050565b60005b83811015620003595780820151818401526020810190506200033c565b8381111562000369576000848401525b50505050565b600062000386620003808462000303565b620002e4565b905082815260208101848484011115620003a557620003a462000269565b5b620003b284828562000339565b509392505050565b600082601f830112620003d257620003d162000264565b5b8151620003e48482602086016200036f565b91505092915050565b600073ffffffffffffffffffffffffffffffffffffffff82169050919050565b60006200041a82620003ed565b9050919050565b6200042c816200040d565b81146200043857600080fd5b50565b6000815190506200044c8162000421565b92915050565b6000806000606084860312156200046e576200046d6200025a565b5b600084015167ffffffffffffffff8111156200048f576200048e6200025f565b5b6200049d86828701620003ba565b935050602084015167ffffffffffffffff811115620004c157620004c06200025f565b5b620004cf86828701620003ba565b9250506040620004e2868287016200043b565b9150509250925092565b7f4e487b7100000000000000000000000000000000000000000000000000000000600052602260045260246000fd5b600060028204905060018216806200053457607f821691505b6020821081036200054a5762000549620004ec565b5b50919050565b6080516131be6200056c6000396000610cb601526131be6000f3fe608060405234801561001057600080fd5b50600436106101165760003560e01c80638da5cb5b116100a2578063b88d4fde11610071578063b88d4fde146102cd578063c87b56dd146102e9578063d85d3d2714610319578063e985e9c514610335578063f2fde38b1461036557610116565b80638da5cb5b1461025757806395d89b4114610275578063a22cb46514610293578063a87d942c146102af57610116565b806323b872dd116100e957806323b872dd146101b557806342842e0e146101d15780636352211e146101ed57806370a082311461021d578063715018a61461024d57610116565b806301ffc9a71461011b57806306fdde031461014b578063081812fc14610169578063095ea7b314610199575b600080fd5b61013560048036038101906101309190611dcb565b610381565b6040516101429190611e13565b60405180910390f35b610153610463565b6040516101609190611ec7565b60405180910390f35b610183600480360381019061017e9190611f1f565b6104f5565b6040516101909190611f8d565b60405180910390f35b6101b360048036038101906101ae9190611fd4565b61057a565b005b6101cf60048036038101906101ca9190612014565b610691565b005b6101eb60048036038101906101e69190612014565b6106f1565b005b61020760048036038101906102029190611f1f565b610711565b6040516102149190611f8d565b60405180910390f35b61023760048036038101906102329190612067565b6107c2565b60405161024491906120a3565b60405180910390f35b610255610879565b005b61025f610901565b60405161026c9190611f8d565b60405180910390f35b61027d61092b565b60405161028a9190611ec7565b60405180910390f35b6102ad60048036038101906102a891906120ea565b6109bd565b005b6102b76109d3565b6040516102c491906120a3565b60405180910390f35b6102e760048036038101906102e2919061225f565b6109e4565b005b61030360048036038101906102fe9190611f1f565b610a46565b6040516103109190611ec7565b60405180910390f35b610333600480360381019061032e9190612383565b610b97565b005b61034f600480360381019061034a91906123cc565b610c9b565b60405161035c9190611e13565b60405180910390f35b61037f600480360381019061037a9190612067565b610d0c565b005b60007f80ac58cd000000000000000000000000000000000000000000000000000000007bffffffffffffffffffffffffffffffffffffffffffffffffffffffff1916827bffffffffffffffffffffffffffffffffffffffffffffffffffffffff1916148061044c57507f5b5e139f000000000000000000000000000000000000000000000000000000007bffffffffffffffffffffffffffffffffffffffffffffffffffffffff1916827bffffffffffffffffffffffffffffffffffffffffffffffffffffffff1916145b8061045c575061045b82610e03565b5b9050919050565b6060600080546104729061243b565b80601f016020809104026020016040519081016040528092919081815260200182805461049e9061243b565b80156104eb5780601f106104c0576101008083540402835291602001916104eb565b820191906000526020600020905b8154815290600101906020018083116104ce57829003601f168201915b5050505050905090565b600061050082610e6d565b61053f576040517f08c379a0000000000000000000000000000000000000000000000000000000008152600401610536906124de565b60405180910390fd5b6004600083815260200190815260200160002060009054906101000a900473ffffffffffffffffffffffffffffffffffffffff169050919050565b600061058582610711565b90508073ffffffffffffffffffffffffffffffffffffffff168373ffffffffffffffffffffffffffffffffffffffff16036105f5576040517f08c379a00000000000000000000000000000000000000000000000000000000081526004016105ec90612570565b60405180910390fd5b8073ffffffffffffffffffffffffffffffffffffffff16610614610ed9565b73ffffffffffffffffffffffffffffffffffffffff16148061064357506106428161063d610ed9565b610c9b565b5b610682576040517f08c379a000000000000000000000000000000000000000000000000000000000815260040161067990612602565b60405180910390fd5b61068c8383610ee1565b505050565b6106a261069c610ed9565b82610f9a565b6106e1576040517f08c379a00000000000000000000000000000000000000000000000000000000081526004016106d890612694565b60405180910390fd5b6106ec838383611078565b505050565b61070c838383604051806020016040528060008152506109e4565b505050565b6000806002600084815260200190815260200160002060009054906101000a900473ffffffffffffffffffffffffffffffffffffffff169050600073ffffffffffffffffffffffffffffffffffffffff168173ffffffffffffffffffffffffffffffffffffffff16036107b9576040517f08c379a00000000000000000000000000000000000000000000000000000000081526004016107b090612726565b60405180910390fd5b80915050919050565b60008073ffffffffffffffffffffffffffffffffffffffff168273ffffffffffffffffffffffffffffffffffffffff1603610832576040517f08c379a0000000000000000000000000000000000000000000000000000000008152600401610829906127b8565b60405180910390fd5b600360008373ffffffffffffffffffffffffffffffffffffffff1673ffffffffffffffffffffffffffffffffffffffff168152602001908152602001600020549050919050565b610881610ed9565b73ffffffffffffffffffffffffffffffffffffffff1661089f610901565b73ffffffffffffffffffffffffffffffffffffffff16146108f5576040517f08c379a00000000000000000000000000000000000000000000000000000000081526004016108ec90612824565b60405180910390fd5b6108ff60006112de565b565b6000600760009054906101000a900473ffffffffffffffffffffffffffffffffffffffff16905090565b60606001805461093a9061243b565b80601f01602080910402602001604051908101604052809291908181526020018280546109669061243b565b80156109b35780601f10610988576101008083540402835291602001916109b3565b820191906000526020600020905b81548152906001019060200180831161099657829003601f168201915b5050505050905090565b6109cf6109c8610ed9565b83836113a4565b5050565b60006109df6009611510565b905090565b6109f56109ef610ed9565b83610f9a565b610a34576040517f08c379a0000000000000000000000000000000000000000000000000000000008152600401610a2b90612694565b60405180910390fd5b610a408484848461151e565b50505050565b6060610a5182610e6d565b610a90576040517f08c379a0000000000000000000000000000000000000000000000000000000008152600401610a87906128b6565b60405180910390fd5b6000600660008481526020019081526020016000208054610ab09061243b565b80601f0160208091040260200160405190810160405280929190818152602001828054610adc9061243b565b8015610b295780601f10610afe57610100808354040283529160200191610b29565b820191906000526020600020905b815481529060010190602001808311610b0c57829003601f168201915b505050505090506000610b3a61157a565b90506000815103610b4f578192505050610b92565b600082511115610b84578082604051602001610b6c929190612912565b60405160208183030381529060405292505050610b92565b610b8d84611591565b925050505b919050565b600260085403610bdc576040517f08c379a0000000000000000000000000000000000000000000000000000000008152600401610bd390612982565b60405180910390fd5b6002600881905550610bec610ed9565b73ffffffffffffffffffffffffffffffffffffffff16610c0a610901565b73ffffffffffffffffffffffffffffffffffffffff1614610c60576040517f08c379a0000000000000000000000000000000000000000000000000000000008152600401610c5790612824565b60405180910390fd5b610c6a6009611638565b610c7d33610c786009611510565b61164e565b610c90610c8a6009611510565b8261166c565b600160088190555050565b60008173ffffffffffffffffffffffffffffffffffffffff167f000000000000000000000000000000000000000000000000000000000000000073ffffffffffffffffffffffffffffffffffffffff1603610cf95760019050610d06565b610d0383836116e0565b90505b92915050565b610d14610ed9565b73ffffffffffffffffffffffffffffffffffffffff16610d32610901565b73ffffffffffffffffffffffffffffffffffffffff1614610d88576040517f08c379a0000000000000000000000000000000000000000000000000000000008152600401610d7f90612824565b60405180910390fd5b600073ffffffffffffffffffffffffffffffffffffffff168173ffffffffffffffffffffffffffffffffffffffff1603610df7576040517f08c379a0000000000000000000000000000000000000000000000000000000008152600401610dee90612a14565b60405180910390fd5b610e00816112de565b50565b60007f01ffc9a7000000000000000000000000000000000000000000000000000000007bffffffffffffffffffffffffffffffffffffffffffffffffffffffff1916827bffffffffffffffffffffffffffffffffffffffffffffffffffffffff1916149050919050565b60008073ffffffffffffffffffffffffffffffffffffffff166002600084815260200190815260200160002060009054906101000a900473ffffffffffffffffffffffffffffffffffffffff1673ffffffffffffffffffffffffffffffffffffffff1614159050919050565b600033905090565b816004600083815260200190815260200160002060006101000a81548173ffffffffffffffffffffffffffffffffffffffff021916908373ffffffffffffffffffffffffffffffffffffffff160217905550808273ffffffffffffffffffffffffffffffffffffffff16610f5483610711565b73ffffffffffffffffffffffffffffffffffffffff167f8c5be1e5ebec7d5bd14f71427d1e84f3dd0314c0f7b2291e5b200ac8c7c3b92560405160405180910390a45050565b6000610fa582610e6d565b610fe4576040517f08c379a0000000000000000000000000000000000000000000000000000000008152600401610fdb90612aa6565b60405180910390fd5b6000610fef83610711565b90508073ffffffffffffffffffffffffffffffffffffffff168473ffffffffffffffffffffffffffffffffffffffff16148061103157506110308185610c9b565b5b8061106f57508373ffffffffffffffffffffffffffffffffffffffff16611057846104f5565b73ffffffffffffffffffffffffffffffffffffffff16145b91505092915050565b8273ffffffffffffffffffffffffffffffffffffffff1661109882610711565b73ffffffffffffffffffffffffffffffffffffffff16146110ee576040517f08c379a00000000000000000000000000000000000000000000000000000000081526004016110e590612b38565b60405180910390fd5b600073ffffffffffffffffffffffffffffffffffffffff168273ffffffffffffffffffffffffffffffffffffffff160361115d576040517f08c379a000000000000000000000000000000000000000000000000000000000815260040161115490612bca565b60405180910390fd5b611168838383611774565b611173600082610ee1565b6001600360008573ffffffffffffffffffffffffffffffffffffffff1673ffffffffffffffffffffffffffffffffffffffff16815260200190815260200160002060008282546111c39190612c19565b925050819055506001600360008473ffffffffffffffffffffffffffffffffffffffff1673ffffffffffffffffffffffffffffffffffffffff168152602001908152602001600020600082825461121a9190612c4d565b92505081905550816002600083815260200190815260200160002060006101000a81548173ffffffffffffffffffffffffffffffffffffffff021916908373ffffffffffffffffffffffffffffffffffffffff160217905550808273ffffffffffffffffffffffffffffffffffffffff168473ffffffffffffffffffffffffffffffffffffffff167fddf252ad1be2c89b69c2b068fc378daa952ba7f163c4a11628f55a4df523b3ef60405160405180910390a46112d9838383611779565b505050565b6000600760009054906101000a900473ffffffffffffffffffffffffffffffffffffffff16905081600760006101000a81548173ffffffffffffffffffffffffffffffffffffffff021916908373ffffffffffffffffffffffffffffffffffffffff1602179055508173ffffffffffffffffffffffffffffffffffffffff168173ffffffffffffffffffffffffffffffffffffffff167f8be0079c531659141344cd1fd0a4f28419497f9722a3daafe3b4186f6b6457e060405160405180910390a35050565b8173ffffffffffffffffffffffffffffffffffffffff168373ffffffffffffffffffffffffffffffffffffffff1603611412576040517f08c379a000000000000000000000000000000000000000000000000000000000815260040161140990612cef565b60405180910390fd5b80600560008573ffffffffffffffffffffffffffffffffffffffff1673ffffffffffffffffffffffffffffffffffffffff16815260200190815260200160002060008473ffffffffffffffffffffffffffffffffffffffff1673ffffffffffffffffffffffffffffffffffffffff16815260200190815260200160002060006101000a81548160ff0219169083151502179055508173ffffffffffffffffffffffffffffffffffffffff168373ffffffffffffffffffffffffffffffffffffffff167f17307eab39ab6107e8899845ad3d59bd9653f200f220920489ca2b5937696c31836040516115039190611e13565b60405180910390a3505050565b600081600001549050919050565b611529848484611078565b6115358484848461177e565b611574576040517f08c379a000000000000000000000000000000000000000000000000000000000815260040161156b90612d81565b60405180910390fd5b50505050565b606060405180602001604052806000815250905090565b606061159c82610e6d565b6115db576040517f08c379a00000000000000000000000000000000000000000000000000000000081526004016115d290612e13565b60405180910390fd5b60006115e561157a565b905060008151116116055760405180602001604052806000815250611630565b8061160f84611905565b604051602001611620929190612912565b6040516020818303038152906040525b915050919050565b6001816000016000828254019250508190555050565b611668828260405180602001604052806000815250611a65565b5050565b61167582610e6d565b6116b4576040517f08c379a00000000000000000000000000000000000000000000000000000000081526004016116ab90612ea5565b60405180910390fd5b806006600084815260200190815260200160002090805190602001906116db929190611cbc565b505050565b6000600560008473ffffffffffffffffffffffffffffffffffffffff1673ffffffffffffffffffffffffffffffffffffffff16815260200190815260200160002060008373ffffffffffffffffffffffffffffffffffffffff1673ffffffffffffffffffffffffffffffffffffffff16815260200190815260200160002060009054906101000a900460ff16905092915050565b505050565b505050565b600061179f8473ffffffffffffffffffffffffffffffffffffffff16611ac0565b156118f8578373ffffffffffffffffffffffffffffffffffffffff1663150b7a026117c8610ed9565b8786866040518563ffffffff1660e01b81526004016117ea9493929190612f1a565b6020604051808303816000875af192505050801561182657506040513d601f19601f820116820180604052508101906118239190612f7b565b60015b6118a8573d8060008114611856576040519150601f19603f3d011682016040523d82523d6000602084013e61185b565b606091505b5060008151036118a0576040517f08c379a000000000000000000000000000000000000000000000000000000000815260040161189790612d81565b60405180910390fd5b805181602001fd5b63150b7a0260e01b7bffffffffffffffffffffffffffffffffffffffffffffffffffffffff1916817bffffffffffffffffffffffffffffffffffffffffffffffffffffffff1916149150506118fd565b600190505b949350505050565b60606000820361194c576040518060400160405280600181526020017f30000000000000000000000000000000000000000000000000000000000000008152509050611a60565b600082905060005b6000821461197e57808061196790612fa8565b915050600a82611977919061301f565b9150611954565b60008167ffffffffffffffff81111561199a57611999612134565b5b6040519080825280601f01601f1916602001820160405280156119cc5781602001600182028036833780820191505090505b5090505b60008514611a59576001826119e59190612c19565b9150600a856119f49190613050565b6030611a009190612c4d565b60f81b818381518110611a1657611a15613081565b5b60200101907effffffffffffffffffffffffffffffffffffffffffffffffffffffffffffff1916908160001a905350600a85611a52919061301f565b94506119d0565b8093505050505b919050565b611a6f8383611ae3565b611a7c600084848461177e565b611abb576040517f08c379a0000000000000000000000000000000000000000000000000000000008152600401611ab290612d81565b60405180910390fd5b505050565b6000808273ffffffffffffffffffffffffffffffffffffffff163b119050919050565b600073ffffffffffffffffffffffffffffffffffffffff168273ffffffffffffffffffffffffffffffffffffffff1603611b52576040517f08c379a0000000000000000000000000000000000000000000000000000000008152600401611b49906130fc565b60405180910390fd5b611b5b81610e6d565b15611b9b576040517f08c379a0000000000000000000000000000000000000000000000000000000008152600401611b9290613168565b60405180910390fd5b611ba760008383611774565b6001600360008473ffffffffffffffffffffffffffffffffffffffff1673ffffffffffffffffffffffffffffffffffffffff1681526020019081526020016000206000828254611bf79190612c4d565b92505081905550816002600083815260200190815260200160002060006101000a81548173ffffffffffffffffffffffffffffffffffffffff021916908373ffffffffffffffffffffffffffffffffffffffff160217905550808273ffffffffffffffffffffffffffffffffffffffff16600073ffffffffffffffffffffffffffffffffffffffff167fddf252ad1be2c89b69c2b068fc378daa952ba7f163c4a11628f55a4df523b3ef60405160405180910390a4611cb860008383611779565b5050565b828054611cc89061243b565b90600052602060002090601f016020900481019282611cea5760008555611d31565b82601f10611d0357805160ff1916838001178555611d31565b82800160010185558215611d31579182015b82811115611d30578251825591602001919060010190611d15565b5b509050611d3e9190611d42565b5090565b5b80821115611d5b576000816000905550600101611d43565b5090565b6000604051905090565b600080fd5b600080fd5b60007fffffffff0000000000000000000000000000000000000000000000000000000082169050919050565b611da881611d73565b8114611db357600080fd5b50565b600081359050611dc581611d9f565b92915050565b600060208284031215611de157611de0611d69565b5b6000611def84828501611db6565b91505092915050565b60008115159050919050565b611e0d81611df8565b82525050565b6000602082019050611e286000830184611e04565b92915050565b600081519050919050565b600082825260208201905092915050565b60005b83811015611e68578082015181840152602081019050611e4d565b83811115611e77576000848401525b50505050565b6000601f19601f8301169050919050565b6000611e9982611e2e565b611ea38185611e39565b9350611eb3818560208601611e4a565b611ebc81611e7d565b840191505092915050565b60006020820190508181036000830152611ee18184611e8e565b905092915050565b6000819050919050565b611efc81611ee9565b8114611f0757600080fd5b50565b600081359050611f1981611ef3565b92915050565b600060208284031215611f3557611f34611d69565b5b6000611f4384828501611f0a565b91505092915050565b600073ffffffffffffffffffffffffffffffffffffffff82169050919050565b6000611f7782611f4c565b9050919050565b611f8781611f6c565b82525050565b6000602082019050611fa26000830184611f7e565b92915050565b611fb181611f6c565b8114611fbc57600080fd5b50565b600081359050611fce81611fa8565b92915050565b60008060408385031215611feb57611fea611d69565b5b6000611ff985828601611fbf565b925050602061200a85828601611f0a565b9150509250929050565b60008060006060848603121561202d5761202c611d69565b5b600061203b86828701611fbf565b935050602061204c86828701611fbf565b925050604061205d86828701611f0a565b9150509250925092565b60006020828403121561207d5761207c611d69565b5b600061208b84828501611fbf565b91505092915050565b61209d81611ee9565b82525050565b60006020820190506120b86000830184612094565b92915050565b6120c781611df8565b81146120d257600080fd5b50565b6000813590506120e4816120be565b92915050565b6000806040838503121561210157612100611d69565b5b600061210f85828601611fbf565b9250506020612120858286016120d5565b9150509250929050565b600080fd5b600080fd5b7f4e487b7100000000000000000000000000000000000000000000000000000000600052604160045260246000fd5b61216c82611e7d565b810181811067ffffffffffffffff8211171561218b5761218a612134565b5b80604052505050565b600061219e611d5f565b90506121aa8282612163565b919050565b600067ffffffffffffffff8211156121ca576121c9612134565b5b6121d382611e7d565b9050602081019050919050565b82818337600083830152505050565b60006122026121fd846121af565b612194565b90508281526020810184848401111561221e5761221d61212f565b5b6122298482856121e0565b509392505050565b600082601f8301126122465761224561212a565b5b81356122568482602086016121ef565b91505092915050565b6000806000806080858703121561227957612278611d69565b5b600061228787828801611fbf565b945050602061229887828801611fbf565b93505060406122a987828801611f0a565b925050606085013567ffffffffffffffff8111156122ca576122c9611d6e565b5b6122d687828801612231565b91505092959194509250565b600067ffffffffffffffff8211156122fd576122fc612134565b5b61230682611e7d565b9050602081019050919050565b6000612326612321846122e2565b612194565b9050828152602081018484840111156123425761234161212f565b5b61234d8482856121e0565b509392505050565b600082601f83011261236a5761236961212a565b5b813561237a848260208601612313565b91505092915050565b60006020828403121561239957612398611d69565b5b600082013567ffffffffffffffff8111156123b7576123b6611d6e565b5b6123c384828501612355565b91505092915050565b600080604083850312156123e3576123e2611d69565b5b60006123f185828601611fbf565b925050602061240285828601611fbf565b9150509250929050565b7f4e487b7100000000000000000000000000000000000000000000000000000000600052602260045260246000fd5b6000600282049050600182168061245357607f821691505b6020821081036124665761246561240c565b5b50919050565b7f4552433732313a20617070726f76656420717565727920666f72206e6f6e657860008201527f697374656e7420746f6b656e0000000000000000000000000000000000000000602082015250565b60006124c8602c83611e39565b91506124d38261246c565b604082019050919050565b600060208201905081810360008301526124f7816124bb565b9050919050565b7f4552433732313a20617070726f76616c20746f2063757272656e74206f776e6560008201527f7200000000000000000000000000000000000000000000000000000000000000602082015250565b600061255a602183611e39565b9150612565826124fe565b604082019050919050565b600060208201905081810360008301526125898161254d565b9050919050565b7f4552433732313a20617070726f76652063616c6c6572206973206e6f74206f7760008201527f6e6572206e6f7220617070726f76656420666f7220616c6c0000000000000000602082015250565b60006125ec603883611e39565b91506125f782612590565b604082019050919050565b6000602082019050818103600083015261261b816125df565b9050919050565b7f4552433732313a207472616e736665722063616c6c6572206973206e6f74206f60008201527f776e6572206e6f7220617070726f766564000000000000000000000000000000602082015250565b600061267e603183611e39565b915061268982612622565b604082019050919050565b600060208201905081810360008301526126ad81612671565b9050919050565b7f4552433732313a206f776e657220717565727920666f72206e6f6e657869737460008201527f656e7420746f6b656e0000000000000000000000000000000000000000000000602082015250565b6000612710602983611e39565b915061271b826126b4565b604082019050919050565b6000602082019050818103600083015261273f81612703565b9050919050565b7f4552433732313a2062616c616e636520717565727920666f7220746865207a6560008201527f726f206164647265737300000000000000000000000000000000000000000000602082015250565b60006127a2602a83611e39565b91506127ad82612746565b604082019050919050565b600060208201905081810360008301526127d181612795565b9050919050565b7f4f776e61626c653a2063616c6c6572206973206e6f7420746865206f776e6572600082015250565b600061280e602083611e39565b9150612819826127d8565b602082019050919050565b6000602082019050818103600083015261283d81612801565b9050919050565b7f45524337323155524953746f726167653a2055524920717565727920666f722060008201527f6e6f6e6578697374656e7420746f6b656e000000000000000000000000000000602082015250565b60006128a0603183611e39565b91506128ab82612844565b604082019050919050565b600060208201905081810360008301526128cf81612893565b9050919050565b600081905092915050565b60006128ec82611e2e565b6128f681856128d6565b9350612906818560208601611e4a565b80840191505092915050565b600061291e82856128e1565b915061292a82846128e1565b91508190509392505050565b7f5265656e7472616e637947756172643a207265656e7472616e742063616c6c00600082015250565b600061296c601f83611e39565b915061297782612936565b602082019050919050565b6000602082019050818103600083015261299b8161295f565b9050919050565b7f4f776e61626c653a206e6577206f776e657220697320746865207a65726f206160008201527f6464726573730000000000000000000000000000000000000000000000000000602082015250565b60006129fe602683611e39565b9150612a09826129a2565b604082019050919050565b60006020820190508181036000830152612a2d816129f1565b9050919050565b7f4552433732313a206f70657261746f7220717565727920666f72206e6f6e657860008201527f697374656e7420746f6b656e0000000000000000000000000000000000000000602082015250565b6000612a90602c83611e39565b9150612a9b82612a34565b604082019050919050565b60006020820190508181036000830152612abf81612a83565b9050919050565b7f4552433732313a207472616e736665722066726f6d20696e636f72726563742060008201527f6f776e6572000000000000000000000000000000000000000000000000000000602082015250565b6000612b22602583611e39565b9150612b2d82612ac6565b604082019050919050565b60006020820190508181036000830152612b5181612b15565b9050919050565b7f4552433732313a207472616e7366657220746f20746865207a65726f2061646460008201527f7265737300000000000000000000000000000000000000000000000000000000602082015250565b6000612bb4602483611e39565b9150612bbf82612b58565b604082019050919050565b60006020820190508181036000830152612be381612ba7565b9050919050565b7f4e487b7100000000000000000000000000000000000000000000000000000000600052601160045260246000fd5b6000612c2482611ee9565b9150612c2f83611ee9565b925082821015612c4257612c41612bea565b5b828203905092915050565b6000612c5882611ee9565b9150612c6383611ee9565b9250827fffffffffffffffffffffffffffffffffffffffffffffffffffffffffffffffff03821115612c9857612c97612bea565b5b828201905092915050565b7f4552433732313a20617070726f766520746f2063616c6c657200000000000000600082015250565b6000612cd9601983611e39565b9150612ce482612ca3565b602082019050919050565b60006020820190508181036000830152612d0881612ccc565b9050919050565b7f4552433732313a207472616e7366657220746f206e6f6e20455243373231526560008201527f63656976657220696d706c656d656e7465720000000000000000000000000000602082015250565b6000612d6b603283611e39565b9150612d7682612d0f565b604082019050919050565b60006020820190508181036000830152612d9a81612d5e565b9050919050565b7f4552433732314d657461646174613a2055524920717565727920666f72206e6f60008201527f6e6578697374656e7420746f6b656e0000000000000000000000000000000000602082015250565b6000612dfd602f83611e39565b9150612e0882612da1565b604082019050919050565b60006020820190508181036000830152612e2c81612df0565b9050919050565b7f45524337323155524953746f726167653a2055524920736574206f66206e6f6e60008201527f6578697374656e7420746f6b656e000000000000000000000000000000000000602082015250565b6000612e8f602e83611e39565b9150612e9a82612e33565b604082019050919050565b60006020820190508181036000830152612ebe81612e82565b9050919050565b600081519050919050565b600082825260208201905092915050565b6000612eec82612ec5565b612ef68185612ed0565b9350612f06818560208601611e4a565b612f0f81611e7d565b840191505092915050565b6000608082019050612f2f6000830187611f7e565b612f3c6020830186611f7e565b612f496040830185612094565b8181036060830152612f5b8184612ee1565b905095945050505050565b600081519050612f7581611d9f565b92915050565b600060208284031215612f9157612f90611d69565b5b6000612f9f84828501612f66565b91505092915050565b6000612fb382611ee9565b91507fffffffffffffffffffffffffffffffffffffffffffffffffffffffffffffffff8203612fe557612fe4612bea565b5b600182019050919050565b7f4e487b7100000000000000000000000000000000000000000000000000000000600052601260045260246000fd5b600061302a82611ee9565b915061303583611ee9565b92508261304557613044612ff0565b5b828204905092915050565b600061305b82611ee9565b915061306683611ee9565b92508261307657613075612ff0565b5b828206905092915050565b7f4e487b7100000000000000000000000000000000000000000000000000000000600052603260045260246000fd5b7f4552433732313a206d696e7420746f20746865207a65726f2061646472657373600082015250565b60006130e6602083611e39565b91506130f1826130b0565b602082019050919050565b60006020820190508181036000830152613115816130d9565b9050919050565b7f4552433732313a20746f6b656e20616c7265616479206d696e74656400000000600082015250565b6000613152601c83611e39565b915061315d8261311c565b602082019050919050565b6000602082019050818103600083015261318181613145565b905091905056fea2646970667358221220b6f312adb235688b9e55b7e984aa4917889d84fd35b7b46b3e2f4bfd27fc233864736f6c634300080d0033a2646970667358221220ed45eb881344f2c9026c755e01458b9b61e309ba5d5de0ac4f1a40fc9e83595164736f6c634300080d0033",
  "linkReferences": {},
  "deployedLinkReferences": {}
}