{
  "_format": "hh-sol-artifact-1",
  "contractName": "Peaciz",
  "sourceName": "contracts/Peaciz.sol",
  "abi": [
    {
      "inputs": [
        {
          "internalType": "string",
          "name": "_name",
          "type": "string"
        },
        {
          "internalType": "string",
          "name": "_symbol",
          "type": "string"
        },
        {
          "internalType": "address",
          "name": "_marketplace",
          "type": "address"
        }
      ],
      "stateMutability": "nonpayable",
      "type": "constructor"
    },
    {
      "anonymous": false,
      "inputs": [
        {
          "indexed": true,
          "internalType": "address",
          "name": "owner",
          "type": "address"
        },
        {
          "indexed": true,
          "internalType": "address",
          "name": "approved",
          "type": "address"
        },
        {
          "indexed": true,
          "internalType": "uint256",
          "name": "tokenId",
          "type": "uint256"
        }
      ],
      "name": "Approval",
      "type": "event"
    },
    {
      "anonymous": false,
      "inputs": [
        {
          "indexed": true,
          "internalType": "address",
          "name": "owner",
          "type": "address"
        },
        {
          "indexed": true,
          "internalType": "address",
          "name": "operator",
          "type": "address"
        },
        {
          "indexed": false,
          "internalType": "bool",
          "name": "approved",
          "type": "bool"
        }
      ],
      "name": "ApprovalForAll",
      "type": "event"
    },
    {
      "anonymous": false,
      "inputs": [
        {
          "indexed": true,
          "internalType": "address",
          "name": "previousOwner",
          "type": "address"
        },
        {
          "indexed": true,
          "internalType": "address",
          "name": "newOwner",
          "type": "address"
        }
      ],
      "name": "OwnershipTransferred",
      "type": "event"
    },
    {
      "anonymous": false,
      "inputs": [
        {
          "indexed": true,
          "internalType": "address",
          "name": "from",
          "type": "address"
        },
        {
          "indexed": true,
          "internalType": "address",
          "name": "to",
          "type": "address"
        },
        {
          "indexed": true,
          "internalType": "uint256",
          "name": "tokenId",
          "type": "uint256"
        }
      ],
      "name": "Transfer",
      "type": "event"
    },
    {
      "inputs": [
        {
          "internalType": "address",
          "name": "to",
          "type": "address"
        },
        {
          "internalType": "uint256",
          "name": "tokenId",
          "type": "uint256"
        }
      ],
      "name": "approve",
      "outputs": [],
      "stateMutability": "nonpayable",
      "type": "function"
    },
    {
      "inputs": [
        {
          "internalType": "address",
          "name": "owner",
          "type": "address"
        }
      ],
      "name": "balanceOf",
      "outputs": [
        {
          "internalType": "uint256",
          "name": "",
          "type": "uint256"
        }
      ],
      "stateMutability": "view",
      "type": "function"
    },
    {
      "inputs": [
        {
          "internalType": "uint256",
          "name": "tokenId",
          "type": "uint256"
        }
      ],
      "name": "getApproved",
      "outputs": [
        {
          "internalType": "address",
          "name": "",
          "type": "address"
        }
      ],
      "stateMutability": "view",
      "type": "function"
    },
    {
      "inputs": [],
      "name": "getCount",
      "outputs": [
        {
          "internalType": "uint256",
          "name": "",
          "type": "uint256"
        }
      ],
      "stateMutability": "view",
      "type": "function"
    },
    {
      "inputs": [
        {
          "internalType": "address",
          "name": "owner",
          "type": "address"
        },
        {
          "internalType": "address",
          "name": "operator",
          "type": "address"
        }
      ],
      "name": "isApprovedForAll",
      "outputs": [
        {
          "internalType": "bool",
          "name": "",
          "type": "bool"
        }
      ],
      "stateMutability": "view",
      "type": "function"
    },
    {
      "inputs": [
        {
          "internalType": "string",
          "name": "_tokenURI",
          "type": "string"
        }
      ],
      "name": "mint",
      "outputs": [],
      "stateMutability": "nonpayable",
      "type": "function"
    },
    {
      "inputs": [],
      "name": "name",
      "outputs": [
        {
          "internalType": "string",
          "name": "",
          "type": "string"
        }
      ],
      "stateMutability": "view",
      "type": "function"
    },
    {
      "inputs": [],
      "name": "owner",
      "outputs": [
        {
          "internalType": "address",
          "name": "",
          "type": "address"
        }
      ],
      "stateMutability": "view",
      "type": "function"
    },
    {
      "inputs": [
        {
          "internalType": "uint256",
          "name": "tokenId",
          "type": "uint256"
        }
      ],
      "name": "ownerOf",
      "outputs": [
        {
          "internalType": "address",
          "name": "",
          "type": "address"
        }
      ],
      "stateMutability": "view",
      "type": "function"
    },
    {
      "inputs": [],
      "name": "renounceOwnership",
      "outputs": [],
      "stateMutability": "nonpayable",
      "type": "function"
    },
    {
      "inputs": [
        {
          "internalType": "address",
          "name": "from",
          "type": "address"
        },
        {
          "internalType": "address",
          "name": "to",
          "type": "address"
        },
        {
          "internalType": "uint256",
          "name": "tokenId",
          "type": "uint256"
        }
      ],
      "name": "safeTransferFrom",
      "outputs": [],
      "stateMutability": "nonpayable",
      "type": "function"
    },
    {
      "inputs": [
        {
          "internalType": "address",
          "name": "from",
          "type": "address"
        },
        {
          "internalType": "address",
          "name": "to",
          "type": "address"
        },
        {
          "internalType": "uint256",
          "name": "tokenId",
          "type": "uint256"
        },
        {
          "internalType": "bytes",
          "name": "_data",
          "type": "bytes"
        }
      ],
      "name": "safeTransferFrom",
      "outputs": [],
      "stateMutability": "nonpayable",
      "type": "function"
    },
    {
      "inputs": [
        {
          "internalType": "address",
          "name": "operator",
          "type": "address"
        },
        {
          "internalType": "bool",
          "name": "approved",
          "type": "bool"
        }
      ],
      "name": "setApprovalForAll",
      "outputs": [],
      "stateMutability": "nonpayable",
      "type": "function"
    },
    {
      "inputs": [
        {
          "internalType": "bytes4",
          "name": "interfaceId",
          "type": "bytes4"
        }
      ],
      "name": "supportsInterface",
      "outputs": [
        {
          "internalType": "bool",
          "name": "",
          "type": "bool"
        }
      ],
      "stateMutability": "view",
      "type": "function"
    },
    {
      "inputs": [],
      "name": "symbol",
      "outputs": [
        {
          "internalType": "string",
          "name": "",
          "type": "string"
        }
      ],
      "stateMutability": "view",
      "type": "function"
    },
    {
      "inputs": [
        {
          "internalType": "uint256",
          "name": "tokenId",
          "type": "uint256"
        }
      ],
      "name": "tokenURI",
      "outputs": [
        {
          "internalType": "string",
          "name": "",
          "type": "string"
        }
      ],
      "stateMutability": "view",
      "type": "function"
    },
    {
      "inputs": [
        {
          "internalType": "address",
          "name": "from",
          "type": "address"
        },
        {
          "internalType": "address",
          "name": "to",
          "type": "address"
        },
        {
          "internalType": "uint256",
          "name": "tokenId",
          "type": "uint256"
        }
      ],
      "name": "transferFrom",
      "outputs": [],
      "stateMutability": "nonpayable",
      "type": "function"
    },
    {
      "inputs": [
        {
          "internalType": "address",
          "name": "newOwner",
          "type": "address"
        }
      ],
      "name": "transferOwnership",
      "outputs": [],
      "stateMutability": "nonpayable",
      "type": "function"
    }
  ],
  "bytecode": "0x60a06040523480156200001157600080fd5b506040516200372a3803806200372a833981810160405281019062000037919062000452565b8282816000908051906020019062000051929190620001a0565b5080600190805190602001906200006a929190620001a0565b5050506200008d62000081620000d260201b60201c565b620000da60201b60201c565b60016008819055508073ffffffffffffffffffffffffffffffffffffffff1660808173ffffffffffffffffffffffffffffffffffffffff168152505050505062000550565b600033905090565b6000600760009054906101000a900473ffffffffffffffffffffffffffffffffffffffff16905081600760006101000a81548173ffffffffffffffffffffffffffffffffffffffff021916908373ffffffffffffffffffffffffffffffffffffffff1602179055508173ffffffffffffffffffffffffffffffffffffffff168173ffffffffffffffffffffffffffffffffffffffff167f8be0079c531659141344cd1fd0a4f28419497f9722a3daafe3b4186f6b6457e060405160405180910390a35050565b828054620001ae906200051b565b90600052602060002090601f016020900481019282620001d257600085556200021e565b82601f10620001ed57805160ff19168380011785556200021e565b828001600101855582156200021e579182015b828111156200021d57825182559160200191906001019062000200565b5b5090506200022d919062000231565b5090565b5b808211156200024c57600081600090555060010162000232565b5090565b6000604051905090565b600080fd5b600080fd5b600080fd5b600080fd5b6000601f19601f8301169050919050565b7f4e487b7100000000000000000000000000000000000000000000000000000000600052604160045260246000fd5b620002b9826200026e565b810181811067ffffffffffffffff82111715620002db57620002da6200027f565b5b80604052505050565b6000620002f062000250565b9050620002fe8282620002ae565b919050565b600067ffffffffffffffff8211156200032157620003206200027f565b5b6200032c826200026e565b9050602081019050919050565b60005b83811015620003595780820151818401526020810190506200033c565b8381111562000369576000848401525b50505050565b600062000386620003808462000303565b620002e4565b905082815260208101848484011115620003a557620003a462000269565b5b620003b284828562000339565b509392505050565b600082601f830112620003d257620003d162000264565b5b8151620003e48482602086016200036f565b91505092915050565b600073ffffffffffffffffffffffffffffffffffffffff82169050919050565b60006200041a82620003ed565b9050919050565b6200042c816200040d565b81146200043857600080fd5b50565b6000815190506200044c8162000421565b92915050565b6000806000606084860312156200046e576200046d6200025a565b5b600084015167ffffffffffffffff8111156200048f576200048e6200025f565b5b6200049d86828701620003ba565b935050602084015167ffffffffffffffff811115620004c157620004c06200025f565b5b620004cf86828701620003ba565b9250506040620004e2868287016200043b565b9150509250925092565b7f4e487b7100000000000000000000000000000000000000000000000000000000600052602260045260246000fd5b600060028204905060018216806200053457607f821691505b6020821081036200054a5762000549620004ec565b5b50919050565b6080516131be6200056c6000396000610cb601526131be6000f3fe608060405234801561001057600080fd5b50600436106101165760003560e01c80638da5cb5b116100a2578063b88d4fde11610071578063b88d4fde146102cd578063c87b56dd146102e9578063d85d3d2714610319578063e985e9c514610335578063f2fde38b1461036557610116565b80638da5cb5b1461025757806395d89b4114610275578063a22cb46514610293578063a87d942c146102af57610116565b806323b872dd116100e957806323b872dd146101b557806342842e0e146101d15780636352211e146101ed57806370a082311461021d578063715018a61461024d57610116565b806301ffc9a71461011b57806306fdde031461014b578063081812fc14610169578063095ea7b314610199575b600080fd5b61013560048036038101906101309190611dcb565b610381565b6040516101429190611e13565b60405180910390f35b610153610463565b6040516101609190611ec7565b60405180910390f35b610183600480360381019061017e9190611f1f565b6104f5565b6040516101909190611f8d565b60405180910390f35b6101b360048036038101906101ae9190611fd4565b61057a565b005b6101cf60048036038101906101ca9190612014565b610691565b005b6101eb60048036038101906101e69190612014565b6106f1565b005b61020760048036038101906102029190611f1f565b610711565b6040516102149190611f8d565b60405180910390f35b61023760048036038101906102329190612067565b6107c2565b60405161024491906120a3565b60405180910390f35b610255610879565b005b61025f610901565b60405161026c9190611f8d565b60405180910390f35b61027d61092b565b60405161028a9190611ec7565b60405180910390f35b6102ad60048036038101906102a891906120ea565b6109bd565b005b6102b76109d3565b6040516102c491906120a3565b60405180910390f35b6102e760048036038101906102e2919061225f565b6109e4565b005b61030360048036038101906102fe9190611f1f565b610a46565b6040516103109190611ec7565b60405180910390f35b610333600480360381019061032e9190612383565b610b97565b005b61034f600480360381019061034a91906123cc565b610c9b565b60405161035c9190611e13565b60405180910390f35b61037f600480360381019061037a9190612067565b610d0c565b005b60007f80ac58cd000000000000000000000000000000000000000000000000000000007bffffffffffffffffffffffffffffffffffffffffffffffffffffffff1916827bffffffffffffffffffffffffffffffffffffffffffffffffffffffff1916148061044c57507f5b5e139f000000000000000000000000000000000000000000000000000000007bffffffffffffffffffffffffffffffffffffffffffffffffffffffff1916827bffffffffffffffffffffffffffffffffffffffffffffffffffffffff1916145b8061045c575061045b82610e03565b5b9050919050565b6060600080546104729061243b565b80601f016020809104026020016040519081016040528092919081815260200182805461049e9061243b565b80156104eb5780601f106104c0576101008083540402835291602001916104eb565b820191906000526020600020905b8154815290600101906020018083116104ce57829003601f168201915b5050505050905090565b600061050082610e6d565b61053f576040517f08c379a0000000000000000000000000000000000000000000000000000000008152600401610536906124de565b60405180910390fd5b6004600083815260200190815260200160002060009054906101000a900473ffffffffffffffffffffffffffffffffffffffff169050919050565b600061058582610711565b90508073ffffffffffffffffffffffffffffffffffffffff168373ffffffffffffffffffffffffffffffffffffffff16036105f5576040517f08c379a00000000000000000000000000000000000000000000000000000000081526004016105ec90612570565b60405180910390fd5b8073ffffffffffffffffffffffffffffffffffffffff16610614610ed9565b73ffffffffffffffffffffffffffffffffffffffff16148061064357506106428161063d610ed9565b610c9b565b5b610682576040517f08c379a000000000000000000000000000000000000000000000000000000000815260040161067990612602565b60405180910390fd5b61068c8383610ee1565b505050565b6106a261069c610ed9565b82610f9a565b6106e1576040517f08c379a00000000000000000000000000000000000000000000000000000000081526004016106d890612694565b60405180910390fd5b6106ec838383611078565b505050565b61070c838383604051806020016040528060008152506109e4565b505050565b6000806002600084815260200190815260200160002060009054906101000a900473ffffffffffffffffffffffffffffffffffffffff169050600073ffffffffffffffffffffffffffffffffffffffff168173ffffffffffffffffffffffffffffffffffffffff16036107b9576040517f08c379a00000000000000000000000000000000000000000000000000000000081526004016107b090612726565b60405180910390fd5b80915050919050565b60008073ffffffffffffffffffffffffffffffffffffffff168273ffffffffffffffffffffffffffffffffffffffff1603610832576040517f08c379a0000000000000000000000000000000000000000000000000000000008152600401610829906127b8565b60405180910390fd5b600360008373ffffffffffffffffffffffffffffffffffffffff1673ffffffffffffffffffffffffffffffffffffffff168152602001908152602001600020549050919050565b610881610ed9565b73ffffffffffffffffffffffffffffffffffffffff1661089f610901565b73ffffffffffffffffffffffffffffffffffffffff16146108f5576040517f08c379a00000000000000000000000000000000000000000000000000000000081526004016108ec90612824565b60405180910390fd5b6108ff60006112de565b565b6000600760009054906101000a900473ffffffffffffffffffffffffffffffffffffffff16905090565b60606001805461093a9061243b565b80601f01602080910402602001604051908101604052809291908181526020018280546109669061243b565b80156109b35780601f10610988576101008083540402835291602001916109b3565b820191906000526020600020905b81548152906001019060200180831161099657829003601f168201915b5050505050905090565b6109cf6109c8610ed9565b83836113a4565b5050565b60006109df6009611510565b905090565b6109f56109ef610ed9565b83610f9a565b610a34576040517f08c379a0000000000000000000000000000000000000000000000000000000008152600401610a2b90612694565b60405180910390fd5b610a408484848461151e565b50505050565b6060610a5182610e6d565b610a90576040517f08c379a0000000000000000000000000000000000000000000000000000000008152600401610a87906128b6565b60405180910390fd5b6000600660008481526020019081526020016000208054610ab09061243b565b80601f0160208091040260200160405190810160405280929190818152602001828054610adc9061243b565b8015610b295780601f10610afe57610100808354040283529160200191610b29565b820191906000526020600020905b815481529060010190602001808311610b0c57829003601f168201915b505050505090506000610b3a61157a565b90506000815103610b4f578192505050610b92565b600082511115610b84578082604051602001610b6c929190612912565b60405160208183030381529060405292505050610b92565b610b8d84611591565b925050505b919050565b600260085403610bdc576040517f08c379a0000000000000000000000000000000000000000000000000000000008152600401610bd390612982565b60405180910390fd5b6002600881905550610bec610ed9565b73ffffffffffffffffffffffffffffffffffffffff16610c0a610901565b73ffffffffffffffffffffffffffffffffffffffff1614610c60576040517f08c379a0000000000000000000000000000000000000000000000000000000008152600401610c5790612824565b60405180910390fd5b610c6a6009611638565b610c7d33610c786009611510565b61164e565b610c90610c8a6009611510565b8261166c565b600160088190555050565b60008173ffffffffffffffffffffffffffffffffffffffff167f000000000000000000000000000000000000000000000000000000000000000073ffffffffffffffffffffffffffffffffffffffff1603610cf95760019050610d06565b610d0383836116e0565b90505b92915050565b610d14610ed9565b73ffffffffffffffffffffffffffffffffffffffff16610d32610901565b73ffffffffffffffffffffffffffffffffffffffff1614610d88576040517f08c379a0000000000000000000000000000000000000000000000000000000008152600401610d7f90612824565b60405180910390fd5b600073ffffffffffffffffffffffffffffffffffffffff168173ffffffffffffffffffffffffffffffffffffffff1603610df7576040517f08c379a0000000000000000000000000000000000000000000000000000000008152600401610dee90612a14565b60405180910390fd5b610e00816112de565b50565b60007f01ffc9a7000000000000000000000000000000000000000000000000000000007bffffffffffffffffffffffffffffffffffffffffffffffffffffffff1916827bffffffffffffffffffffffffffffffffffffffffffffffffffffffff1916149050919050565b60008073ffffffffffffffffffffffffffffffffffffffff166002600084815260200190815260200160002060009054906101000a900473ffffffffffffffffffffffffffffffffffffffff1673ffffffffffffffffffffffffffffffffffffffff1614159050919050565b600033905090565b816004600083815260200190815260200160002060006101000a81548173ffffffffffffffffffffffffffffffffffffffff021916908373ffffffffffffffffffffffffffffffffffffffff160217905550808273ffffffffffffffffffffffffffffffffffffffff16610f5483610711565b73ffffffffffffffffffffffffffffffffffffffff167f8c5be1e5ebec7d5bd14f71427d1e84f3dd0314c0f7b2291e5b200ac8c7c3b92560405160405180910390a45050565b6000610fa582610e6d565b610fe4576040517f08c379a0000000000000000000000000000000000000000000000000000000008152600401610fdb90612aa6565b60405180910390fd5b6000610fef83610711565b90508073ffffffffffffffffffffffffffffffffffffffff168473ffffffffffffffffffffffffffffffffffffffff16148061103157506110308185610c9b565b5b8061106f57508373ffffffffffffffffffffffffffffffffffffffff16611057846104f5565b73ffffffffffffffffffffffffffffffffffffffff16145b91505092915050565b8273ffffffffffffffffffffffffffffffffffffffff1661109882610711565b73ffffffffffffffffffffffffffffffffffffffff16146110ee576040517f08c379a00000000000000000000000000000000000000000000000000000000081526004016110e590612b38565b60405180910390fd5b600073ffffffffffffffffffffffffffffffffffffffff168273ffffffffffffffffffffffffffffffffffffffff160361115d576040517f08c379a000000000000000000000000000000000000000000000000000000000815260040161115490612bca565b60405180910390fd5b611168838383611774565b611173600082610ee1565b6001600360008573ffffffffffffffffffffffffffffffffffffffff1673ffffffffffffffffffffffffffffffffffffffff16815260200190815260200160002060008282546111c39190612c19565b925050819055506001600360008473ffffffffffffffffffffffffffffffffffffffff1673ffffffffffffffffffffffffffffffffffffffff168152602001908152602001600020600082825461121a9190612c4d565b92505081905550816002600083815260200190815260200160002060006101000a81548173ffffffffffffffffffffffffffffffffffffffff021916908373ffffffffffffffffffffffffffffffffffffffff160217905550808273ffffffffffffffffffffffffffffffffffffffff168473ffffffffffffffffffffffffffffffffffffffff167fddf252ad1be2c89b69c2b068fc378daa952ba7f163c4a11628f55a4df523b3ef60405160405180910390a46112d9838383611779565b505050565b6000600760009054906101000a900473ffffffffffffffffffffffffffffffffffffffff16905081600760006101000a81548173ffffffffffffffffffffffffffffffffffffffff021916908373ffffffffffffffffffffffffffffffffffffffff1602179055508173ffffffffffffffffffffffffffffffffffffffff168173ffffffffffffffffffffffffffffffffffffffff167f8be0079c531659141344cd1fd0a4f28419497f9722a3daafe3b4186f6b6457e060405160405180910390a35050565b8173ffffffffffffffffffffffffffffffffffffffff168373ffffffffffffffffffffffffffffffffffffffff1603611412576040517f08c379a000000000000000000000000000000000000000000000000000000000815260040161140990612cef565b60405180910390fd5b80600560008573ffffffffffffffffffffffffffffffffffffffff1673ffffffffffffffffffffffffffffffffffffffff16815260200190815260200160002060008473ffffffffffffffffffffffffffffffffffffffff1673ffffffffffffffffffffffffffffffffffffffff16815260200190815260200160002060006101000a81548160ff0219169083151502179055508173ffffffffffffffffffffffffffffffffffffffff168373ffffffffffffffffffffffffffffffffffffffff167f17307eab39ab6107e8899845ad3d59bd9653f200f220920489ca2b5937696c31836040516115039190611e13565b60405180910390a3505050565b600081600001549050919050565b611529848484611078565b6115358484848461177e565b611574576040517f08c379a000000000000000000000000000000000000000000000000000000000815260040161156b90612d81565b60405180910390fd5b50505050565b606060405180602001604052806000815250905090565b606061159c82610e6d565b6115db576040517f08c379a00000000000000000000000000000000000000000000000000000000081526004016115d290612e13565b60405180910390fd5b60006115e561157a565b905060008151116116055760405180602001604052806000815250611630565b8061160f84611905565b604051602001611620929190612912565b6040516020818303038152906040525b915050919050565b6001816000016000828254019250508190555050565b611668828260405180602001604052806000815250611a65565b5050565b61167582610e6d565b6116b4576040517f08c379a00000000000000000000000000000000000000000000000000000000081526004016116ab90612ea5565b60405180910390fd5b806006600084815260200190815260200160002090805190602001906116db929190611cbc565b505050565b6000600560008473ffffffffffffffffffffffffffffffffffffffff1673ffffffffffffffffffffffffffffffffffffffff16815260200190815260200160002060008373ffffffffffffffffffffffffffffffffffffffff1673ffffffffffffffffffffffffffffffffffffffff16815260200190815260200160002060009054906101000a900460ff16905092915050565b505050565b505050565b600061179f8473ffffffffffffffffffffffffffffffffffffffff16611ac0565b156118f8578373ffffffffffffffffffffffffffffffffffffffff1663150b7a026117c8610ed9565b8786866040518563ffffffff1660e01b81526004016117ea9493929190612f1a565b6020604051808303816000875af192505050801561182657506040513d601f19601f820116820180604052508101906118239190612f7b565b60015b6118a8573d8060008114611856576040519150601f19603f3d011682016040523d82523d6000602084013e61185b565b606091505b5060008151036118a0576040517f08c379a000000000000000000000000000000000000000000000000000000000815260040161189790612d81565b60405180910390fd5b805181602001fd5b63150b7a0260e01b7bffffffffffffffffffffffffffffffffffffffffffffffffffffffff1916817bffffffffffffffffffffffffffffffffffffffffffffffffffffffff1916149150506118fd565b600190505b949350505050565b60606000820361194c576040518060400160405280600181526020017f30000000000000000000000000000000000000000000000000000000000000008152509050611a60565b600082905060005b6000821461197e57808061196790612fa8565b915050600a82611977919061301f565b9150611954565b60008167ffffffffffffffff81111561199a57611999612134565b5b6040519080825280601f01601f1916602001820160405280156119cc5781602001600182028036833780820191505090505b5090505b60008514611a59576001826119e59190612c19565b9150600a856119f49190613050565b6030611a009190612c4d565b60f81b818381518110611a1657611a15613081565b5b60200101907effffffffffffffffffffffffffffffffffffffffffffffffffffffffffffff1916908160001a905350600a85611a52919061301f565b94506119d0565b8093505050505b919050565b611a6f8383611ae3565b611a7c600084848461177e565b611abb576040517f08c379a0000000000000000000000000000000000000000000000000000000008152600401611ab290612d81565b60405180910390fd5b505050565b6000808273ffffffffffffffffffffffffffffffffffffffff163b119050919050565b600073ffffffffffffffffffffffffffffffffffffffff168273ffffffffffffffffffffffffffffffffffffffff1603611b52576040517f08c379a0000000000000000000000000000000000000000000000000000000008152600401611b49906130fc565b60405180910390fd5b611b5b81610e6d565b15611b9b576040517f08c379a0000000000000000000000000000000000000000000000000000000008152600401611b9290613168565b60405180910390fd5b611ba760008383611774565b6001600360008473ffffffffffffffffffffffffffffffffffffffff1673ffffffffffffffffffffffffffffffffffffffff1681526020019081526020016000206000828254611bf79190612c4d565b92505081905550816002600083815260200190815260200160002060006101000a81548173ffffffffffffffffffffffffffffffffffffffff021916908373ffffffffffffffffffffffffffffffffffffffff160217905550808273ffffffffffffffffffffffffffffffffffffffff16600073ffffffffffffffffffffffffffffffffffffffff167fddf252ad1be2c89b69c2b068fc378daa952ba7f163c4a11628f55a4df523b3ef60405160405180910390a4611cb860008383611779565b5050565b828054611cc89061243b565b90600052602060002090601f016020900481019282611cea5760008555611d31565b82601f10611d0357805160ff1916838001178555611d31565b82800160010185558215611d31579182015b82811115611d30578251825591602001919060010190611d15565b5b509050611d3e9190611d42565b5090565b5b80821115611d5b576000816000905550600101611d43565b5090565b6000604051905090565b600080fd5b600080fd5b60007fffffffff0000000000000000000000000000000000000000000000000000000082169050919050565b611da881611d73565b8114611db357600080fd5b50565b600081359050611dc581611d9f565b92915050565b600060208284031215611de157611de0611d69565b5b6000611def84828501611db6565b91505092915050565b60008115159050919050565b611e0d81611df8565b82525050565b6000602082019050611e286000830184611e04565b92915050565b600081519050919050565b600082825260208201905092915050565b60005b83811015611e68578082015181840152602081019050611e4d565b83811115611e77576000848401525b50505050565b6000601f19601f8301169050919050565b6000611e9982611e2e565b611ea38185611e39565b9350611eb3818560208601611e4a565b611ebc81611e7d565b840191505092915050565b60006020820190508181036000830152611ee18184611e8e565b905092915050565b6000819050919050565b611efc81611ee9565b8114611f0757600080fd5b50565b600081359050611f1981611ef3565b92915050565b600060208284031215611f3557611f34611d69565b5b6000611f4384828501611f0a565b91505092915050565b600073ffffffffffffffffffffffffffffffffffffffff82169050919050565b6000611f7782611f4c565b9050919050565b611f8781611f6c565b82525050565b6000602082019050611fa26000830184611f7e565b92915050565b611fb181611f6c565b8114611fbc57600080fd5b50565b600081359050611fce81611fa8565b92915050565b60008060408385031215611feb57611fea611d69565b5b6000611ff985828601611fbf565b925050602061200a85828601611f0a565b9150509250929050565b60008060006060848603121561202d5761202c611d69565b5b600061203b86828701611fbf565b935050602061204c86828701611fbf565b925050604061205d86828701611f0a565b9150509250925092565b60006020828403121561207d5761207c611d69565b5b600061208b84828501611fbf565b91505092915050565b61209d81611ee9565b82525050565b60006020820190506120b86000830184612094565b92915050565b6120c781611df8565b81146120d257600080fd5b50565b6000813590506120e4816120be565b92915050565b6000806040838503121561210157612100611d69565b5b600061210f85828601611fbf565b9250506020612120858286016120d5565b9150509250929050565b600080fd5b600080fd5b7f4e487b7100000000000000000000000000000000000000000000000000000000600052604160045260246000fd5b61216c82611e7d565b810181811067ffffffffffffffff8211171561218b5761218a612134565b5b80604052505050565b600061219e611d5f565b90506121aa8282612163565b919050565b600067ffffffffffffffff8211156121ca576121c9612134565b5b6121d382611e7d565b9050602081019050919050565b82818337600083830152505050565b60006122026121fd846121af565b612194565b90508281526020810184848401111561221e5761221d61212f565b5b6122298482856121e0565b509392505050565b600082601f8301126122465761224561212a565b5b81356122568482602086016121ef565b91505092915050565b6000806000806080858703121561227957612278611d69565b5b600061228787828801611fbf565b945050602061229887828801611fbf565b93505060406122a987828801611f0a565b925050606085013567ffffffffffffffff8111156122ca576122c9611d6e565b5b6122d687828801612231565b91505092959194509250565b600067ffffffffffffffff8211156122fd576122fc612134565b5b61230682611e7d565b9050602081019050919050565b6000612326612321846122e2565b612194565b9050828152602081018484840111156123425761234161212f565b5b61234d8482856121e0565b509392505050565b600082601f83011261236a5761236961212a565b5b813561237a848260208601612313565b91505092915050565b60006020828403121561239957612398611d69565b5b600082013567ffffffffffffffff8111156123b7576123b6611d6e565b5b6123c384828501612355565b91505092915050565b600080604083850312156123e3576123e2611d69565b5b60006123f185828601611fbf565b925050602061240285828601611fbf565b9150509250929050565b7f4e487b7100000000000000000000000000000000000000000000000000000000600052602260045260246000fd5b6000600282049050600182168061245357607f821691505b6020821081036124665761246561240c565b5b50919050565b7f4552433732313a20617070726f76656420717565727920666f72206e6f6e657860008201527f697374656e7420746f6b656e0000000000000000000000000000000000000000602082015250565b60006124c8602c83611e39565b91506124d38261246c565b604082019050919050565b600060208201905081810360008301526124f7816124bb565b9050919050565b7f4552433732313a20617070726f76616c20746f2063757272656e74206f776e6560008201527f7200000000000000000000000000000000000000000000000000000000000000602082015250565b600061255a602183611e39565b9150612565826124fe565b604082019050919050565b600060208201905081810360008301526125898161254d565b9050919050565b7f4552433732313a20617070726f76652063616c6c6572206973206e6f74206f7760008201527f6e6572206e6f7220617070726f76656420666f7220616c6c0000000000000000602082015250565b60006125ec603883611e39565b91506125f782612590565b604082019050919050565b6000602082019050818103600083015261261b816125df565b9050919050565b7f4552433732313a207472616e736665722063616c6c6572206973206e6f74206f60008201527f776e6572206e6f7220617070726f766564000000000000000000000000000000602082015250565b600061267e603183611e39565b915061268982612622565b604082019050919050565b600060208201905081810360008301526126ad81612671565b9050919050565b7f4552433732313a206f776e657220717565727920666f72206e6f6e657869737460008201527f656e7420746f6b656e0000000000000000000000000000000000000000000000602082015250565b6000612710602983611e39565b915061271b826126b4565b604082019050919050565b6000602082019050818103600083015261273f81612703565b9050919050565b7f4552433732313a2062616c616e636520717565727920666f7220746865207a6560008201527f726f206164647265737300000000000000000000000000000000000000000000602082015250565b60006127a2602a83611e39565b91506127ad82612746565b604082019050919050565b600060208201905081810360008301526127d181612795565b9050919050565b7f4f776e61626c653a2063616c6c6572206973206e6f7420746865206f776e6572600082015250565b600061280e602083611e39565b9150612819826127d8565b602082019050919050565b6000602082019050818103600083015261283d81612801565b9050919050565b7f45524337323155524953746f726167653a2055524920717565727920666f722060008201527f6e6f6e6578697374656e7420746f6b656e000000000000000000000000000000602082015250565b60006128a0603183611e39565b91506128ab82612844565b604082019050919050565b600060208201905081810360008301526128cf81612893565b9050919050565b600081905092915050565b60006128ec82611e2e565b6128f681856128d6565b9350612906818560208601611e4a565b80840191505092915050565b600061291e82856128e1565b915061292a82846128e1565b91508190509392505050565b7f5265656e7472616e637947756172643a207265656e7472616e742063616c6c00600082015250565b600061296c601f83611e39565b915061297782612936565b602082019050919050565b6000602082019050818103600083015261299b8161295f565b9050919050565b7f4f776e61626c653a206e6577206f776e657220697320746865207a65726f206160008201527f6464726573730000000000000000000000000000000000000000000000000000602082015250565b60006129fe602683611e39565b9150612a09826129a2565b604082019050919050565b60006020820190508181036000830152612a2d816129f1565b9050919050565b7f4552433732313a206f70657261746f7220717565727920666f72206e6f6e657860008201527f697374656e7420746f6b656e0000000000000000000000000000000000000000602082015250565b6000612a90602c83611e39565b9150612a9b82612a34565b604082019050919050565b60006020820190508181036000830152612abf81612a83565b9050919050565b7f4552433732313a207472616e736665722066726f6d20696e636f72726563742060008201527f6f776e6572000000000000000000000000000000000000000000000000000000602082015250565b6000612b22602583611e39565b9150612b2d82612ac6565b604082019050919050565b60006020820190508181036000830152612b5181612b15565b9050919050565b7f4552433732313a207472616e7366657220746f20746865207a65726f2061646460008201527f7265737300000000000000000000000000000000000000000000000000000000602082015250565b6000612bb4602483611e39565b9150612bbf82612b58565b604082019050919050565b60006020820190508181036000830152612be381612ba7565b9050919050565b7f4e487b7100000000000000000000000000000000000000000000000000000000600052601160045260246000fd5b6000612c2482611ee9565b9150612c2f83611ee9565b925082821015612c4257612c41612bea565b5b828203905092915050565b6000612c5882611ee9565b9150612c6383611ee9565b9250827fffffffffffffffffffffffffffffffffffffffffffffffffffffffffffffffff03821115612c9857612c97612bea565b5b828201905092915050565b7f4552433732313a20617070726f766520746f2063616c6c657200000000000000600082015250565b6000612cd9601983611e39565b9150612ce482612ca3565b602082019050919050565b60006020820190508181036000830152612d0881612ccc565b9050919050565b7f4552433732313a207472616e7366657220746f206e6f6e20455243373231526560008201527f63656976657220696d706c656d656e7465720000000000000000000000000000602082015250565b6000612d6b603283611e39565b9150612d7682612d0f565b604082019050919050565b60006020820190508181036000830152612d9a81612d5e565b9050919050565b7f4552433732314d657461646174613a2055524920717565727920666f72206e6f60008201527f6e6578697374656e7420746f6b656e0000000000000000000000000000000000602082015250565b6000612dfd602f83611e39565b9150612e0882612da1565b604082019050919050565b60006020820190508181036000830152612e2c81612df0565b9050919050565b7f45524337323155524953746f726167653a2055524920736574206f66206e6f6e60008201527f6578697374656e7420746f6b656e000000000000000000000000000000000000602082015250565b6000612e8f602e83611e39565b9150612e9a82612e33565b604082019050919050565b60006020820190508181036000830152612ebe81612e82565b9050919050565b600081519050919050565b600082825260208201905092915050565b6000612eec82612ec5565b612ef68185612ed0565b9350612f06818560208601611e4a565b612f0f81611e7d565b840191505092915050565b6000608082019050612f2f6000830187611f7e565b612f3c6020830186611f7e565b612f496040830185612094565b8181036060830152612f5b8184612ee1565b905095945050505050565b600081519050612f7581611d9f565b92915050565b600060208284031215612f9157612f90611d69565b5b6000612f9f84828501612f66565b91505092915050565b6000612fb382611ee9565b91507fffffffffffffffffffffffffffffffffffffffffffffffffffffffffffffffff8203612fe557612fe4612bea565b5b600182019050919050565b7f4e487b7100000000000000000000000000000000000000000000000000000000600052601260045260246000fd5b600061302a82611ee9565b915061303583611ee9565b92508261304557613044612ff0565b5b828204905092915050565b600061305b82611ee9565b915061306683611ee9565b92508261307657613075612ff0565b5b828206905092915050565b7f4e487b7100000000000000000000000000000000000000000000000000000000600052603260045260246000fd5b7f4552433732313a206d696e7420746f20746865207a65726f2061646472657373600082015250565b60006130e6602083611e39565b91506130f1826130b0565b602082019050919050565b60006020820190508181036000830152613115816130d9565b9050919050565b7f4552433732313a20746f6b656e20616c7265616479206d696e74656400000000600082015250565b6000613152601c83611e39565b915061315d8261311c565b602082019050919050565b6000602082019050818103600083015261318181613145565b905091905056fea2646970667358221220b6f312adb235688b9e55b7e984aa4917889d84fd35b7b46b3e2f4bfd27fc233864736f6c634300080d0033",
  "linkReferences": {},
  "deployedLinkReferences": {}
}